:020000041000EA
:1000000000B5324B212058609868022188439860DF
:10001000D860186158612E4B002199600221596106
:100020000121F02299502B49196001219960352056
:1000300000F044F80222904214D00621196600F024
:1000400034F8196E01211966002018661A6600F04E
:100050002CF8196E196E196E052000F02FF8012189
:100060000842F9D1002199601B49196000215960AB
:100070001A491B48016001219960EB211966A021F2
:10008000196600F012F800219960164914480160C1
:100090000121996001BC002800D000471248134993
:1000A000086003C880F30888084703B5996A0420EC
:1000B0000142FBD001200142F8D103BD02B5186610
:1000C0001866FFF7F2FF186E186E02BD00000240BE
:1000D000000000180000070000035F00212200005C
:1000E000F4000018222000A00001001008ED00E03C
:1000F00000000000000000000000000074B24E7A12
:1001000000200420F7010010C3010010C5010010F9
:10011000C1010010C1010010C1010010C101001097
:10012000C1010010C1010010C1010010C701001081
:10013000C1010010C1010010C9010010CB01001065
:10014000CD010010CD010010CD010010CD01001037
:10015000CD010010CD010010CD010010CD01001027
:10016000CD010010CD010010CD010010CD01001017
:10017000CD010010CD010010CD010010CD01001007
:10018000CD010010CD010010CD010010CD010010F7
:10019000CD010010CD010010CD010010CD010010E7
:1001A000CD010010CD010010CD010010CD010010D7
:1001B000CD010010CD010010CD010010CD010010C7
:1001C00000BE00BE00BE00BE00BE00BEEFF3058054
:1001D000103800BEF2EB8871FC3E0010203F00108A
:1001E0003402001090A31AE700201F49086006C8D7
:1001F00081F3088810471D48006800282FD10DA4FE
:100200000ECC002902D000F012F8F9E71849194A7B
:10021000002000E001C19142FCD1174988471749ED
:1002200088471749884700BEFDE701C901C29A42C5
:10023000FBD37047203F0010C00000206C0200205C
:10024000CC4000100000042000000420CC4000102E
:10025000001004200010042000000000704709482E
:1002600001F078FD0047000008ED00E0000000D03C
:10027000700200209C250020CD1B001045030010BB
:10028000C11C00105756000006005250ABB360531B
:10029000343E001006005250861C0302443E0010FB
:1002A000060052505422A29D503E001005005250AC
:1002B000DE65F468CC400010F8B5C04610B5064CB9
:1002C0002378002B07D1054B002B02D0044800E017
:1002D00000BF0123237010BD700500200000000046
:1002E000C83D0010044B10B5002B03D0034904484F
:1002F00000E000BF10BDC0460000000074050020F3
:10030000C83D00100C4BF0B51A680C4B01211D685C
:100310000B4F2B0010339940FA23380004355B0152
:10032000FE18AD00046853681942FCD10430AC508B
:10033000B042F7D13800F5E7200600203C06002047
:1003400050060020F0B5DE4657464E464546E0B51D
:100350008DB003F059FA03F0D3FC1F211A2000F0EE
:100360002FF9002200211A2000F042F900211A2062
:1003700000F056F9E022FA21614BD2011B68614876
:100380001340614AC9001360FF2200F0DDF85F4DA1
:100390005F486049286003F041FB012181462868DD
:1003A00003F01EFB2B688022984600230793F82356
:1003B00052025B0204920593C023574E1B03102286
:1003C000306004A9070008A8069303F0B5F84B466F
:1003D0004A460233D2011B03134308A9102204A882
:1003E000099303F0A9F84D4B002406934C4B43446A
:1003F0005A1E934106339A4620005146013400F0BC
:10040000DFF8082CF8D180247B00DB19DB004344A3
:10041000DC331A68434924040A4022431A6001234A
:100420008A469B460022390040460093073303F07A
:1004300059FB079B404603935346039A39001340E8
:100440001C43394B4A46049304AB079403F0A2FBC8
:1004500043461A685B46BB40134342463348136029
:1004600003F028FC04228021314B49001A60244A01
:1004700013680B42FCD050680004000C02F084FFAB
:100480002C4902F074FF02F0D9FF0B00802102001A
:10049000C905002002F068F90022274B01F0E5FCB5
:1004A00001F084FD254902F062FF254902F05FFF5B
:1004B000011C244802F047FF33688146984602F049
:1004C000B7FF84B200232F68002C0ED0200002F06A
:1004D00055FF011C484602F030FF8721C90502F094
:1004E00046FF02F0A5FFC3B21B0224041C4343468F
:1004F0005B004344DB00FF18C8373C60B2E7C046EE
:1005000000C004405006002000D004402006002017
:1005100000002050C83D00103C06002000000C30B8
:100520000000E0AFE0FF0FFC003E310005030010CB
:1005300000E004403333533A00005940000040408B
:100540000000FA4490F4F74CF8B54746CE46804692
:1005500080B54D081700002D2ED0100002F00EFFC0
:10056000041C280002F00AFF011C201C02F0EBFE14
:100570000024061CA3009946200002F005FF311C50
:1005800002F0F5FE02F022FF43464A46013498503D
:10059000AC42EFD10024A8008044200002F0F4FE19
:1005A000311C02F0E4FE02F011FF4346381A01C389
:1005B00001349846AC42F0D1C0BCB946B046F8BD53
:1005C000094A830094464022634410B51C68C00069
:1005D0006240C02414408022520113431C60034B2C
:1005E0009C466044416010BD04C001400040014091
:1005F0000A4B80009C4604236044002901D00C2350
:100600000821002A00D10B00026853400C221A4036
:1006100080235B01184302607047C04604C001405C
:10062000084B80009C466044002905D080239B0134
:100630001843402303607047C0239B0118434023A5
:100640000360F8E704C00140024B18688007C00F40
:100650007047C04600C00640EFF3108072B6034AF0
:100660001368002BFCD0BFF35F8F70472C0100D0C4
:10067000BFF35F8F0022024B1A6080F3108870472F
:100680002C0100D070B5EFF3108C72B60D4D2B68B5
:10069000002BFCD0BFF35F8F0724CB08C618C05CCB
:1006A00001230C40A3401C000440034207D1034334
:1006B0003370BFF35F8F2C608CF3108870BD100017
:1006C00001F002FB2C0100D0F8B54746CE46884623
:1006D00080B5EFF3108C72B6214D2C68002CFCD045
:1006E000BFF35F8F9A422CD8D4080727055D0619FF
:1006F00001241740BC402C421FD007210127894606
:1007000009E0D408055D06194C4639001440A140A3
:100710000C00294211D001329342F2D20120404212
:10072000BFF35F8F00220E4B1A608CF310880028F5
:100730000FDBC0BCB946B046F8BD2C431000347086
:10074000EEE7BFF35F8F00232B608CF3108801204E
:1007500040424346002BECD0089801F0B5FAC04661
:100760002C0100D00021044B044ABFF35F8F02C369
:100770009342FAD17047C046000100D0800100D0FA
:10078000044A1078431CDBB2172B00D910231370D6
:100790007047C0469801002001238340002904D0FF
:1007A000034A1360034A13607047034A1360FBE770
:1007B00080E200E000E100E080E100E00122824010
:1007C000034B1B6813405A1E9341D8B27047C04672
:1007D00000E100E0024B10309B688000C058704779
:1007E00000ED00E070B50D00EFF3108672B60F4A11
:1007F0001368002BFCD0BFF35F8F0D4B10309B684C
:1008000084001B590B4A934203D09D4201D001F052
:1008100073FA074B9B681D51BFF35F8FBFF35F8F68
:100820000022024B1A6086F3108870BD240100D0AC
:1008300000ED00E0CD010010F0B5DE4657464E4613
:100840004546E0B50C0083B0EFF3108972B6584A04
:100850001368002BFCD0BFF35F8F564B9A680300E0
:1008600010339F00D559544A9046954232D0A54244
:1008700043D0524EAA1B2F2A2CD8012282409246E6
:1008800051464F4A12681140019151464D4A11603C
:10089000BFF35F8FEFF305829346002A33D1012324
:1008A0002A009A4393689C4208D177E04B005B187A
:1008B0009B00F3189968A1422AD01A0006215156CC
:1008C0000029F3DA019B002B19D052463E4B1A60E7
:1008D0003B4B1A60374B9B68DD51BFF35F8FBFF313
:1008E0005F8F0022324B1A6089F3108803B0F0BC8E
:1008F000BB46B246A946A046F0BD1500EAE75246FF
:10090000304B1A60E6E79342C9D001F0F5F9C6E72B
:1009100006215956002921DB4A005018800034185E
:100920008046A0689860E079D871062020569871BA
:10093000002824DBA488F01A640524154444001917
:10094000E0240005400D24022043988052181F4BDC
:100950009200B6181A781970B271B3E75946002997
:100960000FD1FF3191711A49918018490A789A7113
:10097000184A9B1B5B415A43120D0A70A2E71648A6
:10098000E3E7164A1649D21A083A5002400D0143CD
:100990009980144952080A43DA8093E70621515698
:1009A00013000029B8DA5A46002AEAD14546DCE7A6
:1009B000240100D000ED00E0CD0100109C010020DA
:1009C00000E100E080E100E080E200E09A25002004
:1009D00001BDFFFFAAAA000001BD0000D601002052
:1009E00000F0FFFF00F8FFFF70B5EFF30581012471
:1009F0000443EFF3108C72B6214A1368002BFCD02D
:100A0000BFF35F8F1F4B05001F4AED1A6D416A430C
:100A1000120D1E4D8900AE6852B27658A6421CD007
:100A20000621595691421CD012215956914222D08A
:100A30001E215956914220D02A2159560324914211
:100A400010D0134B19781A708171BFF35F8F002299
:100A50000B4B1A608CF3108870BDAB680D4C5C506A
:100A6000EFE700246100091989005B18FF219971E3
:100A700009499980E5E70124F4E70224F2E7C0463A
:100A8000240100D09C010020AAAA000000ED00E093
:100A90009A250020CD01001001BDFFFF054B064A3D
:100AA0001360064A136053609360D360136153610F
:100AB000936170478080808000E400E004E400E0FF
:100AC000024B9C466144890001607047400000343D
:100AD00010B50400FFF754FE01002000FFF7F0FFFF
:100AE000FF232371BFF35F8F10BDC04610B5040014
:100AF000FFF746FE01002000FFF7E2FFFF23A3807F
:100B0000BFF35F8F10BDC04683680B4810B58446A5
:100B100061446244090112019A18591854684B68DB
:100B200001209C4201D802D00020C0B210BD126842
:100B30000B689A42F9D8F7E7FFFFFF0F0A4B1968D5
:100B4000EFF3108072B60A68002AFCD0BFF35F8F03
:100B50001B68BFF35F8F00221A6080F3108840BFCC
:100B6000002000217047C04638060020F8B55746DF
:100B70004E464546DE46E0B599460CAB1C780DABBB
:100B80001B78060090469A460768002C11D1BC7B62
:100B9000002C42D065003B682D19033D59194B7854
:100BA000BB73002B00D1FB7300238B704B700B7059
:100BB00004E065003B682D19033D5919B2682A4BC2
:100BC00094464246E3181B0163441A604A465A6041
:100BD0000A9A9A600B9ADA6000238B704B700B7044
:100BE0007B7B9B46002B2BD022005946B8687B6844
:100BF00098473A68002816D05B4658465B005B442D
:100C00005519033BA870D118D35C002B00D06B7032
:100C10005B460C707B73A34513D0F0BCBB46B24659
:100C2000A946A046F8BD5B465B005B44033BD31876
:100C30009C705119525D002A00D05A705B460B70AF
:100C40007C7342464B46307D00F010FB051E06D0FB
:100C50005346002B03D12100306800F031FD0E9B7C
:100C6000002BDAD01D70D8E7FFFFFF0FF0B5DE468E
:100C700057464E4645460023E0B58BB00893664B79
:100C80008200D45800239B46099000F09FFA6268C6
:100C900006000F00EFF3108572B61368002BFCD02E
:100CA000BFF35F8F23689C465B7B9946002B68D01F
:100CB000A2685A4B90464B441B01984443461A681D
:100CC0005B6810001900801BB941002963DD099899
:100CD00000F0CCFA002300229846002306920793E6
:100CE00000239A466368BFF35F8F5A461A6085F304
:100CF00010885346002B08D10028C6D10BB0F0BC99
:100D0000BB46B246A946A046F0BD089B4146180224
:100D10004B461843D047626806000F00EFF310857A
:100D200072B61368002BFCD0BFF35F8F002F4FDB30
:100D300033003B4302D02369002B60D12368D97B69
:100D4000002907D04A00521819688C464946624467
:100D5000033A51709A7B002A01D14A469A734A4657
:100D6000DA734B46E168013BCA5C0132CA545B4608
:100D700023616368BFF35F8F5A461A6085F310885A
:100D800083E700230022984600230692079300235E
:100D900000209A46A6E7002901D1002897D100211A
:100DA000604600F00BFC43461A685B6806920793A6
:100DB00043469B689A464346DB689846E3684B4443
:100DC000013B1B7808931B0203432361002089E742
:100DD0002369002BB2D0069A079B921BBB41002BC4
:100DE00015DB594604910121039149460291414680
:100DF0000191514620000091FFF7B8FEB7E700F0DF
:100E0000E5F932003B0012184B41002BE9DA0122D0
:100E1000034B5242E5E7C04624060020FFFFFF0FC8
:100E2000FFFFFF7F10B5144C6368002B04D00A212C
:100E30001248FFF745FE10BD2300114A102120681B
:100E400000F0D6FA032000F0B5F9032000F07EFA96
:100E500003200C4900F0C4F9FFF792FC0A4B9C46B2
:100E600003232375D0231B061B6860446375074B5F
:100E700080006060DC60DAE7E401002038060020D2
:100E8000090B00106D0C00104000003424060020F7
:100E9000F0B557464E464546DE46E0B585B001936F
:100EA00010AB1B780600039300239A4698460092E5
:100EB0007268EFF3108972B61368002BFCD0BFF391
:100EC0005F8F3568AC7B002C49D067002B683F19D9
:100ED000033FDB195A78AA73002A00D1EA73B1687C
:100EE000484A8C4600980199A21812016244106089
:100EF00051600E9991600F99D16042469A705A7074
:100F00001A706B7B9B46002B45D022001900A86805
:100F10006B6898472A68002830D05B4658465B00CB
:100F20005B44D719033BB870D118D35C002B00D0B9
:100F30007B705B460C706B735C452DD0F3681B199E
:100F4000013B18787368BFF35F8F42461A6089F3DC
:100F500010885346002B2CD10002204307E0736811
:100F6000BFF35F8F1C6089F310880120404205B0F9
:100F7000F0BCBB46B246A946A046F0BD5B465B004E
:100F80005B44033BD3189C70D119D25D002A00D07A
:100F90005A705B460B706C73307D009A019B00F0B9
:100FA00065F982460028C9D02100306800F088FB2E
:100FB000C4E7039B002B23D00E9B00200F9998477A
:100FC000030004000D000B431AD000290ADA009A2E
:100FD000019B121BAB4100920193002B0ADB039B88
:100FE0009A4665E700F0F2F824184D410094019507
:100FF000002DF4DA0123044C5B4200930194EEE7E8
:101000000020B4E7FFFFFF0FFFFFFF7F70B54268CE
:101010000400EFF3108572B61368002BFCD0BFF309
:101020005F8F2068CEB2437BB3420AD0FF230B40D0
:101030005A00D318026894466344033B9B78002B04
:1010400013D0E268FF2394460B406344013B0A0A35
:101050001978D2B291420ED000206368BFF35F8F3F
:1010600000221A6085F3108870BD22698A42F3D18C
:1010700000202361F1E7310000F022FBEDE7C046DC
:1010800070B5EFF3058305000C0084B0002B0AD087
:10109000164A0020536A9C4203D8926A0130AA4241
:1010A0001FD304B070BD124E02930193114B020086
:1010B000009330000B00FFF7EBFE011EE8DD20BFC0
:1010C0003000FFF7A3FF094B0020596A8C42E8D893
:1010D0009B6A0130AB42E4D2641A631E9C41E0B2C9
:1010E000DFE7E41A631E9C41E0B2DAE70040054006
:1010F000E40100203D0B0010F0B5EFF30582D64669
:101100004F4646461000C0B51038EFF3108872B64F
:10111000214C2368002BFCD0BFF35F8F0123190003
:1011200081401E4D1F006963AA461D4D29601D4D5B
:101130002E78AC463500C5402F402B4209D1BFF375
:101140005F8F276088F31088E0BCBA46B146A84696
:10115000F0BD5346144D5F6A83005D59AF420ED314
:10116000124A8E439B5862461670BFF35F8F00226F
:10117000226088F31088002BE6D09847E4E70C4BF8
:1011800092009C46624413681360BFF35F8F002394
:10119000236088F31088D7E7280100D0004005407D
:1011A0003C7005409B25002040060020940500204F
:1011B000D03F054010B50100024A0348FFF762FA2C
:1011C00010BDC046D83D001098250020034B596A39
:1011D0000A00986A596A8A42FAD17047004005406D
:1011E00070B504000D00EFF3108672B61A4A13684A
:1011F000002BFCD0BFF35F8F002D1BD02000FFF72A
:10120000E9FA164981420AD02000FFF7EBFA0121E2
:101210002000FFF7C1FA0123A340114A1360114BCC
:10122000A400E550BFF35F8F00220B4B1A6086F3DA
:10123000108870BD0B4BA200D5500122A2400A4974
:1012400020000B7893430B700449FFF7F5FA002157
:101250002000FFF7A1FAE5E7280100D0F9100010FF
:1012600038600540940500209B250020F0B54F46CE
:10127000D6464646C0B507002F4C616A0D00A66AE7
:10128000616AA942FAD18B4208D805D00120E0BC9E
:10129000BA46B146A846F0BDB242F7D9EFF3108A7C
:1012A00072B6264801680029FCD0BFF35F8F012584
:1012B000BD402349204C8846097889462943C9B254
:1012C0008C46414660460870391D1E48890065639A
:1012D0000A51B9000B50216A0020294219D0616AD5
:1012E0000800A66A616A8142FAD18B4219D801D1FD
:1012F000B24216D8CC451DD00F4B1F201D625D6336
:1013000001230740BB40104A1E38136043464A463B
:101310001A70BFF35F8F0022084B1A608AF310889F
:10132000B5E70020BFF35F8F0022044B1A608AF3F9
:101330001088ACE70120ECE700400540280100D010
:101340009B2500204006002080E200E0EFF3108C97
:1013500072B60A490B68002BFCD0BFF35F8F0123E4
:101360008340074A0748136202789A430270BFF32A
:101370005F8F00230B608CF310887047280100D02A
:10138000004005409B25002070B5050014001600A4
:10139000002915D00C00002A12D080686B6898478D
:1013A000296800280ED073009B196200033B1219B4
:1013B000CB18033A9C7088188A5C002A15D10670F5
:1013C000200070BD63001B197200033B9219CB18FB
:1013D000033A9E7088188A5C002A02D10470340097
:1013E000EEE75A7004703400EAE75A700670E7E7D7
:1013F00030B583600023CCB2437301330473426081
:101400008373C4730D000068012C06D9421C01339C
:10141000DBB2137003329C42F9D1FF2129404B000B
:101420005918002340180338437030BDF8B5CE4634
:10143000474606000C0080B5002907D04D00036820
:101440006D18033D5A195778002F04D12000C0BCF5
:10145000B946B046F8BD7900C919033988464344F6
:101460005978894600215970517073683A002100FB
:10147000806898473368002814D042469A189470C0
:1014800059195B5D002B00D053700F70270049463F
:101490003000FFF7CBFF390002003000FFF774FF88
:1014A0000400D3E7424641465D19AF709A185B5C71
:1014B000002B00D06B701470E9E7C046F0B55746BA
:1014C0004546DE464E46E0B50D006B0001685B19EF
:1014D000DF1E0400C85D83B00192CA19002850D0F5
:1014E00043001B18033BCB185E78B446002E1AD17C
:1014F000019E002E42D0E67B002E04D073009B1983
:10150000CB18033B5D70A37B002B00D1A573E57363
:1015100000282FD10023537003B0F0BCBB46B24665
:10152000A946A046F0BD72006244033A89184A7881
:10153000904600224A7091465A7001003200200005
:10154000FFF722FF43468246002B07D05B0021684D
:101550004344033BCB185A78002A16D142465146E1
:101560002000FFF711FF2168019BCA19002BC2D18F
:101570000028CFD043001B18033BCB1800219970E3
:10158000C8E7019B002BB6D1C4E750008018033890
:1015900009184878834648464870587041462000EC
:1015A000FFF7F2FE594680462000FFF73FFF414615
:1015B00002002000FFF7E8FE8046CFE7F0B557466F
:1015C0004546DE464E46E0B583B00191457B0400BA
:1015D0006B0000685B19DF1EC15DC219002952D083
:1015E0004B005B18033BC3185E78B446002E1CD139
:1015F000019E002E44D0E67B002E04D073009B1980
:10160000C318033B5D70A37B002B00D1A573E5736A
:10161000002931D1002328005370617303B0F0BC5E
:10162000BB46B246A946A046F0BD72006244033AEA
:101630008018427890460022427091465A702000ED
:101640003200FFF7A1FE43468246002B07D05B0025
:1016500021684344033BCB185A78002A17D14246ED
:1016600051462000FFF790FE019B01002068C2193F
:10167000002BC0D10029CDD04B005B18033BC31811
:1016800000209870C6E7019B002BB4D1C2E7500040
:1016900080180338091848788346484648705870BF
:1016A00041462000FFF770FE594680462000FFF7B4
:1016B000BDFE414602002000FFF766FE8046CEE7F1
:1016C00070B5040000292CD0437B8B422ED00568D6
:1016D00048004018033828188278002A21D0530087
:1016E0009B18033BEA5CEE188A4202D11BE0002AF9
:1016F00008D053009B18033BEB185A788A42F6D166
:1017000042785A7000230122837043702000FFF753
:10171000D5FE617B02002000FFF736FE60730120DA
:1017200000E0002070BD43783370EBE70122190020
:10173000FFF7C4FE60730120F4E7C046F8B504006B
:1017400006200D0000F0C8F9002844D02A4B2B4990
:10175000E21853425A418023DB039C469205284BF2
:1017600062441A60274B1A6010008B689843FBD1C3
:10177000214B8021E3185A425341234A5B00490020
:101780009952062000F0A8F92900C00000F014FBCF
:10179000C30921D140270121260080256162A3626F
:1017A00000232C36AD0135432B60062000F094F960
:1017B0003900800000F000FB6023E26A53406E2293
:1017C0001A4080235B0133431A60104B23631023BC
:1017D0002B600D3BA364F8BD0D4A934203D900234F
:1017E0000C4F0D49D8E77F221040013040089F017F
:1017F00019003F180300CFE70080FCBF00C0004085
:1018000000E0004000F000409025002001030000AF
:10181000FEFF0000C0FF3F00FFFF000030B50C20BE
:1018200083B000F0B7F9FEF70FFF00280ED0944BFD
:10183000944A1A605A609A60DA601A615A619A6131
:10184000DA611A62904A5A6203B030BD8F4CA067C9
:1018500000F0A8F901228E4B1A60636C012BFCD1B9
:1018600003228C4B1A60894A936B012BFCD1013304
:101870000121894A89480093043300F033F9052394
:10188000874A00930121874800F02CF9864B5A685B
:10189000FF2A02D8802252005A608022784C7D4B69
:1018A00021691201804D1A60002905D0606900F09D
:1018B00083FA01300138FDD1E0217B4B02201A6808
:1018C0001140802252012A431160196848400321C7
:1018D0000140116004219A681142FCD080228021CD
:1018E00092012A4309011160802252005A606F4B15
:1018F00023616F4B5968FF2900D85A600321644A5D
:101900006B4B116002399A681142FCD0E0201A68D2
:101910001040802252011A43106018684840032189
:1019200001400220116062498A681042FCD0802286
:1019300092011343802212011A6080225D4B5200F3
:101940004A6063615C4B5968FF2900D85A60802265
:101950005A4BE1691201584D1A60002905D060699F
:1019600000F02AFA01300138FDD1E02252490B681B
:101970001A4080235B012B431A60802380229B0145
:101980002B4312011A6080223E4B52004A60E361F1
:101990004B4B5968FF2900D85A608022494B216A75
:1019A0001201474D1A60002905D0606900F004FA61
:1019B00001300138FDD1E02241490B681A408023F3
:1019C0005B012B431A60802380229B012B43120171
:1019D0001A60802380225B004B602A4BD202236274
:1019E000394B5968914200D25A608022374B616A64
:1019F0001201354D1A60002905D0606900F0DCF94C
:101A000001300138FDD1E0222F490B681A408023B4
:101A10005B012B431A60802380229B012B43120120
:101A20001A608023DB024B60174B6362284B5A68B5
:101A3000FF2A02D8802252005A608022254BA169D9
:101A40001201234D1A60002905D0606900F0B4F935
:101A500001300138FDD1E0221D490B681A40802376
:101A60005B012B431A60802380229B012B431201D0
:101A70001A6080235B004B600E4BA361E4E6C04616
:101A8000AC050020006CDC021BB7000000800040A9
:101A90003CB0004030B00040002F68590080024048
:101AA000008C864700C0024030800040001BB70019
:101AB0003C800040405973075480004054B00040BF
:101AC0006080004060B000406C8000406CB000401E
:101AD0004880004048B00040014B8000C05870472B
:101AE000AC050020F0B5C646040000B50C209046B9
:101AF0001F000E0000F060F94101091A8D01691AFA
:101B0000C90009188901404600F056F9069B3F04B8
:101B10001A0323681743002B22DB1A4B1A4DE218D5
:101B200053425A4180235B019C461203174B624487
:101B30001A60174B1A601100AB689943FBD1C022A1
:101B4000231D92011A4321232660A060136023689D
:101B5000002BFCDA0823E760136080BCB846F0BDB8
:101B60003F2322681340B342D7D1A3681B051B0D46
:101B70008342D2D1EE22E368D2021340BB42CCD1E1
:101B8000EBE7C0460040FDBF00C0004000E0004061
:101B900000F000408023024A9B000343D362704759
:101BA00000800540AA23064A1B0113602F23054924
:101BB000D360054B19605368002BFCDA7047C046B0
:101BC0000040024000B0FA00006002402C4B2D4A59
:101BD00070B51A602C4A2D4B2D491A6014008B6881
:101BE0009C43FBD12B4D2C4EB54208D2013E761BB7
:101BF000B60808CD984723000134B342F9D1FFF766
:101C00000DFE264A214B1A60214A9368DB43DB0113
:101C1000DD09002BF9D14022214B224C224E9A673C
:101C20005A671A67DA66B44208D223682000002B8C
:101C300020D00834FEF75AFFB442F6D31B4E1C4C9A
:101C4000C022A168300001F077FCA660FEF78AFD93
:101C5000FEF724FFFFF7E6F8164C174EB44208D201
:101C6000013E361BB60808CC98472B0001359E4232
:101C7000F9D170BD0834FEF72BFFB442D5D3DDE7B0
:101C800000E00040BFCDFBFEFE7F3C0000F00040C6
:101C900000C000405802002068020020FFFFFF0142
:101CA00000F00140480200205802002000000020FF
:101CB00000ED00E0680200206C02002000BEFDE79D
:101CC00010B5FFF7FBFFC0460FB400B5084883B05E
:101CD00001F064FD049B002B07D005A918000191B9
:101CE00000F018F8034801F059FD0120FFF7E6FF66
:101CF000FC3D00100C3E001010B50148FFF7E4FF5A
:101D0000103E001010B5002800D110BD01F0FAFC03
:101D1000FBE7C04610B5094A0300146884B0002CE4
:101D200008D0012200910648524203A9A047012091
:101D300004B010BD01F032FD0020F9E71C060020C0
:101D4000051D001001480421014B18471002002016
:101D5000751D0010142310B50100188804331B886A
:101D6000984710BD162310B50100188802331B8850
:101D7000984710BDF8B54746CE4680B50F1E19D01E
:101D800014239946043304000025012698464B4647
:101D90001888434621681B88984701C4431E984110
:101DA000013540420640AF42F1D13000C0BCB946D7
:101DB000B046F8BD0126F8E7114A936F9B0813D28D
:101DC00010665166002905D0FFE7FFE7FFE7516F76
:101DD000106F704704B5002801D00020C04301F007
:101DE000E3FF002104BDC046F0B5146E556E576F79
:101DF000166FFFF7E5FF1466556657671667F0BD67
:101E0000000000D048404140484018B41B4B5B687C
:101E1000FC46019308BD04DFAF2A001018B4174B2D
:101E20001B68FC46019308BD00DFB92A00109446E8
:101E3000134A926F920809D2624618B40F4BDB68BE
:101E4000FC46019308BD0CDF712D00100C4AF0B563
:101E5000146E556E576F166F6246FFF7EEFF084A15
:101E60001466556657671667F0BD18B4034B9B6838
:101E7000FC46019308BD08DF152C001070030020FC
:101E8000000000D0FFB550404240504059404B4008
:101E9000594000E0FFB5154F4C00640D03D0BC4223
:101EA00004D10C0314D80020090D09055C00640D51
:101EB00003D0BC4204D11C030AD800221B0D1B0511
:101EC00001264B4009D44B4003D58B4200D18242BE
:101ED000FFBD9942FCD19042FFBD0B43DB18034389
:101EE0001343F5D0C9434918FFBD0000FF070000A8
:101EF00000B5FFF7CFFF01D0002000BD012000BDDD
:101F000000B5FFF7C7FF01D9002000BD012000BDCB
:101F100000B5FFF7B7FF01D9002000BD012000BDCB
:101F200000B5FFF7AFFF804100BD00000021002891
:101F300005D17047C1174840401AFAD0C90713B5F8
:101F4000064B1B6898470CBC441CA2401005120BA2
:101F50000349091B09051943114310BD340600202C
:101F60001F04000010B54C00620D8023D218DB0066
:101F7000D21A5B057E2A10DD9E3A13DACC170903CC
:101F8000490819435242D140640001341532202AD5
:101F900005DAD0400843604310BD002010BD08465C
:101FA000604310BDC80FC018013810BD18B4044BF1
:101FB000DB6FFC46019308BD7CDF212F0010000081
:101FC0007003002018B4044BDB6CFC46019308BD81
:101FD0004CDFCD30001000007003002018B4044B1B
:101FE0001B6DFC46019308BD50DF693100100000F5
:101FF00070030020132370B51D78012D15D010DD5E
:102000001C48FFF7AFFE1C4C01008022200001F0AD
:1020100093FA022D06D01948FFF79CFE184B186062
:1020200070BD154C174BA364F5E7164B124C23609B
:102030006360A360E36023616361A361E361236282
:102040006362A362E36223636363A363E363236462
:102050006364A364E36423656365A365E365236642
:102060006366A366E36623676367A367E367A364A6
:10207000D1E7C04653440000700300204C330000F9
:10208000340600207D2A0010F0B546464F46D6465D
:10209000C0B54E001D00730D99468B4B14004B4488
:1020A00098464B4688B0002B30D0884B99452DD0B0
:1020B0004B460022864FFF1A3B0580185941FFF717
:1020C0008DFF844A844BFFF7B2FE0022834B06004B
:1020D0000F00FFF725FF002826D14346002B31D003
:1020E0000022200029007E4BFFF712FF002832D18A
:1020F0000022200029007B4BFFF702FF002835D08B
:1021000043460020002B2ADB002129E0FFF766FF71
:10211000704A714BFFF78BFE0022704B06000F00D8
:10212000FFF7FEFE0028DBD0300039006E4B0022A6
:10213000FFF76BFE6D4B06004B44984643460F007D
:10214000002BCDD122002B0030003900FFF78DFE8F
:1021500000F0ACFA04E043460020002BD4DB6449D5
:1021600008B0E0BCBA46B146A846F0BD2000290040
:1021700000F04CFA0B0002002900200004920593A5
:10218000FFF743FE1A220290039100F019FA00F0C3
:102190003DFA0B000090019149000200490D0BD05F
:1021A0004A48814208D000201A2900DC81E05149C8
:1021B000801859410090019104980599FFF7D2FECB
:1021C00082464046FFF7B6FE009A019B04900591B7
:1021D000FFF74BFE04000D0000F018FA0A000100A2
:1021E000130006910792020029002000FFF70DFE60
:1021F000009A019B04000D0002980399FFF705FE69
:10220000049A059BFFF731FE22002B00FFF706FE24
:10221000009001915046FFF78DFE32003B00FFF722
:1022200024FE04000D0000F0F1F90A000100130083
:1022300004910592020029002000FFF7E6FD009AB4
:10224000019BFFF7EBFD04000D000298039932009B
:102250003B00FFF70AFE22002B00FFF7DFFD00F036
:1022600025FA4E0004000D00760D00D178E7174BDB
:102270009E4200D174E706980799534647465F434C
:10228000FFF770FEC71904980599FFF76BFEC01998
:102290008319002B09DD184A93420DDD144AEB0F18
:1022A000DB071A43002011005AE7EB0F0020D90783
:1022B00056E7DB0FD9077DE70022030512196B41B2
:1022C000100019004CE7C04601FCFFFFFF070000AB
:1022D000FF030000EF39FAFE422EE63F0000E03F28
:1022E0000000B0400000B0C00000F03F02FCFFFF63
:1022F0000000F07F000060FEFE070000F8B54E46CB
:102300004546DE4657460400E0B50D001600012A9A
:102310005FD0D70FBF187F10012F50D00323D217E3
:1023200013409B199B109846012B3ED00723134066
:102330009B19DB109946012B30D00F2313409B19BA
:102340001B119A46012B1ED01F2313409B195B11B2
:102350009B46012B0CD03F231A4092199211FFF794
:10236000CDFF0B000200FFF780FD5B46DB073BD48F
:102370000B000200FFF779FD5346DB0703D522006F
:102380002B00FFF772FD0B000200FFF76EFD4B46BE
:10239000DB0703D522002B00FFF767FD0B000200CF
:1023A000FFF763FD4346DB0719D40B000200FFF77C
:1023B0005CFDFB0703D522002B00FFF756FD0B0049
:1023C0000200FFF752FDF30703D522002B00FFF7B1
:1023D0004CFDF0BCBB46B246A946A046F8BD220063
:1023E0002B00FFF742FDE0E722002B00FFF73DFD49
:1023F000BEE7C046F0B54F464646D6469146C0B504
:10240000984606000F0004000D1E46DA5A00654B80
:1024100020219C463423520D62449B1A49425E1887
:1024200000D5A1E01F31B1400120404298404F4605
:102430008743380047468F43002E00DA8CE0414640
:10244000F14001263140002A1EDB002B4EDB3843D1
:102450005BD1002907D008E0802221001206AA18CB
:102460000C00151E17DA342BF6D1802636064346AB
:1024700020004A46A919FFF7BDFF8B191900E0BCDF
:10248000BA46B146A846F0BD802322001B06EB18D1
:1024900014001D1EF8DB26002F0048464146FFF7BA
:1024A00061FD6B00824602005B0D3DD03E498B42D0
:1024B0003AD02903090B0C4336D13C4A904268DBE1
:1024C00080221201904262DA364A944663445843AD
:1024D000374BC318002B5EDD364A93425EDC0305A2
:1024E00000220020344980185941C8E78023220087
:1024F0001B06EB1814001D1ECDDA802322001B06DC
:10250000EB1814001D1EF1DBC5E7802322001B061B
:10251000EB1814001D1EBEDA802322001B06EB18E8
:1025200014001D1EF1DBB6E75346002B25D02033E7
:10253000402B25D85346002B09DA32003B000020FF
:102540001D49FFF774FC534606000F005A42300045
:102550003900FFF7D3FE92E720214646C91A8E4084
:102560004946D94031436CE70121202049420F0000
:10257000C01AC7409940394356E700200E497EE70C
:102580004A46434630003900FFF77EFD77E70648AC
:102590009AE7100094E70020002170E70020074927
:1025A0006DE7C04601FCFFFFFF07000000F8FFFFDA
:1025B000FF030000FE0700000000F03F0000F07F76
:1025C0004B0070B55B0D04000D00002B0ED00C4EBF
:1025D000B3420BD0D318002B09DD0A498B420ADD28
:1025E000094AEB0FDB071A430020110070BDCB0F27
:1025F0000020D907FAE70020110500196941F5E725
:10260000FF070000FE0700000000F07F254A4B0096
:1026100094465B0D6344F0B504000D005A1C24DBA6
:102620005A1C38D03422D21A002A1DDD3322D31A84
:10263000533A9A181DD401269640310001269E4037
:10264000300024184D41002A1FDB0226964031003D
:1026500002229A4010002600002342428B412C00A7
:1026600016401C4030002100F0BDCB0F0020D907E0
:10267000FAE720260127F61AF74001269E40390086
:10268000300024184D41002ADFDA20220226D21A17
:10269000D6403100DCE7CB0F034ADB071A430020AA
:1026A0001100E1E701FCFFFF0000F03F264B70B591
:1026B0000A0D05000C009A423AD00022234BFFF786
:1026C0001FFC002834D1002228002100204BFFF7F6
:1026D0001FFC002802D000201E4970BD28002100E8
:1026E000FFF794FFFFF73EFC0600FFF723FC020014
:1026F0000B0028002100FFF788FB174B174AFFF754
:10270000B4FBFFF75FFC4B0004000D005B0DE4D051
:10271000134A9342E1D0F318002B0CDD114A934287
:102720000DDDCB0F0B4ADB071A4300201100D4E765
:1027300000200021D1E7CB0F0020D907CDE70020F2
:10274000310500196941C8E7FF0F00000000B0C063
:102750000000B0400000F07F422EE63FEF39FAFE65
:10276000FF070000FE070000F0B5D6464F4646467C
:10277000C0B517001E000022B84B05000C00FFF783
:10278000B7FBAC46230000283CD1330D99465B05CE
:102790005A0D9046002B3CD0002228002100B04B5F
:1027A000FFF7A6FB002838D0AE4B984531D09945AD
:1027B00000D176E0AC4B994500D16CE04346AB4A82
:1027C0009B1800D56DE0A6483422D31A9C46002BF6
:1027D00010DD543A991800D5F8E01F328A400121E3
:1027E0006346494299403B008B43310091430B4380
:1027F00000D001E133003A0028002100FFF7FAFD84
:1028000084460B0060461900E0BCBA46B146A846B3
:10281000F0BD00239C46914BF4E7220D53052000A8
:10282000590D002B2AD14346904A002E3DDB9B18C0
:1028300031D43421C91A2ED420235B425B18984628
:1028400060D4012342465B429340012252428A40B7
:1028500038009043020030009843030013431AD11C
:10286000AC4623003429CDD04346002B00DA9DE04E
:10287000DE40F3070FD5AC462300C3E7794B9A46F9
:102880009A4248D100239C46002EBBDB784BB9E727
:10289000784B994205DC00239C46B3E7754B99427F
:1028A000F9DC00239C46724BACE79B18F9D4342228
:1028B000D31AF6D4543A98181BD41F3282400121FF
:1028C000494299403D008D432900350095432A0037
:1028D0000A43E6D1342B04D000286FDBC640F3074F
:1028E000DFD500226249E40FE40721430B00944640
:1028F00088E70122202152421500C91ACD409A4092
:102900002A43DCE7012320225B421800521AD04000
:102910008B40034399E7544B9A4262D14346534A52
:10292000002E20DB9B18BCD43422D31AB9D4543ADD
:10293000981876D41F3282400121494299403C00C8
:102940008C4321003400944322000A43A9D1342B44
:1029500000D17FE0002875DBC64000239C46F307CA
:1029600094D5454B4EE79B1895D43422D31A92D474
:10297000543A98184CD41F32824001214942994060
:102980003C008C4321003400944322000A4300D0D1
:1029900081E7342B05D000284CDBC640F30700D478
:1029A00079E700239C4680231B062BE720235B1A34
:1029B0009E4033003E00CE401E435AE72022D21AEA
:1029C000964032003E00DE40164388E70122202177
:1029D0005242C91A1300CB40190063469A400A4379
:1029E000FDE6D14500D153E7994500D156E743466E
:1029F0001E4A9B1800D4E7E6002800DA51E73300AE
:102A00003A0028002100FFF73FFB84460B00F9E65F
:102A10000122202152421400C91ACC409A4022437C
:102A2000ABE70122202152421400C91ACC409A403F
:102A3000224381E72022D21A964032003E00DE4037
:102A40001643ABE72022D21A964032003E00DE4009
:102A5000164382E700239C46074BD3E60000F03F75
:102A60000000F0BFFF070000FF0F000001FCFFFFA8
:102A70000000F07FFE0300000000F0FF07B5604695
:102A800001880A0A0230DF2AFAD1C9B2820804D3C7
:102A9000028840880004104300E00068014A50505A
:102AA000039007BD700300200FB403BC0CBCF0B54D
:102AB0000124E407634000E0F0B50C0DCF0F661E63
:102AC0003605891B640503D3C943404200D3013155
:102AD000640D03D0661CF60A07D0E41B00207F00BB
:102AE000791C89078912803C24031D0DDF0F6E1E9F
:102AF00036059B1B6D0503D3DB43524200D30133E4
:102B00006D0D03D06E1CF60A07D0ED1B00227F006E
:102B10007B1C9B079B12803D2D032F1B661B58D4EB
:102B2000A446202E46DA20371400BC401D00BD40CC
:102B3000F24033412A4380185941CB0F05D0C94395
:102B4000C043002264425041514162464D0D28D19C
:102B50000D0D07D100281FD0241940414941013AE9
:102B60000D0DF9D0640006D3013000D30131002CE3
:102B700001D140084000013A0BD4941CE40A04D16E
:102B800012051144DB071944F0BDD907204B194346
:102B900000E0D9070020F0BD0029DDD1002CDBD1F9
:102BA000F0BD0132C6074008CD0728434908002E72
:102BB000E1D0D9E73C2E29DA203E40371400BC4052
:102BC00000D00124F24014431A00BB401C43D31729
:102BD000ACE7AC46202F08DA20360400B4400D00E4
:102BE000B540F84039412843A5E73C2F0CDA203F97
:102BF00040360400B44000D00124F84004430800EB
:102C0000B1400C43C117EAE710001900002494E713
:102C10000000F07FF0B50C0D661E3605891BE60A34
:102C20006405640D02D0651CED0A04D0002001216A
:102C30000905803C2403A4461C0D671E3F05DB1BD1
:102C4000E70A6405640D02D0651CED0A04D0002279
:102C500001231B05803C24037740644497B484B26D
:102C600096B27443070C7E43150C6F4380B26843E1
:102C7000361802D3012000043F183004350C001927
:102C80007D41844688B29AB250430C0C62431F0CBB
:102C90007C438EB27E43921902D301263604A419D6
:102CA0001604170C3618674101BC81B29AB2514321
:102CB000040C62431B0C5C4380B25843121802D3CD
:102CC0000120000424181004130C401863412D182F
:102CD0005E410020474106BC88B293B258430C0CB9
:102CE0006343120C544389B251435B1802D3012150
:102CF0000904641819041A0C091862416D18564128
:102D00000020474118BCF902720D1143F0026A0D10
:102D10001043ED020A0D03D16D1940414941013BB9
:102D2000124E9B1B7600B3420ED26D0007D30130CA
:102D3000002671416646354301D1400840001B051D
:102D4000C918E4072144F0BD0BDA013306D1013084
:102D500004D101314F0D01D04908F2E7E10700200D
:102D6000F0BD013631050020EBE70000FF03000055
:102D7000F0B51C0D671E3F05DB1BE70A6405640DFB
:102D800002D0661CF60A04D0002201231B05803CF9
:102D90002403D0252D060026F6432E661E096E66F6
:102DA000CE0FF619B44649004F0D02D07E1CF60A2C
:102DB00003D000200021403F3F033E1BB600B44437
:102DC000013F7F05C91B49082E6F013676089C021A
:102DD000950D25437543ED137543AD1301356D1006
:102DE000F603761B0CB4CC02450D2C43A2B2B3B251
:102DF0005A43270C7B43350C6F43A4B26C431B1919
:102E000002D3012424043F191C041D0CA4187D4185
:102E100024196D41009A91B2ACB26143170C7C4306
:102E20002B0C5F4392B25A43A41802D3012212041E
:102E3000BF182204230C52187B41019C6C431B19C0
:102E4000520ED9010A434401A01A81B2B2B25143D1
:102E500003145A43360C734387B27743D617D219FB
:102E600000277E4136049B191704160C7F185E411B
:102E70007316ED18F301002680337541A90F06D1B2
:102E80006400690AE8055B0A184309D22FE00422AE
:102E9000944480337541A90AA8059B0A184326D398
:102EA000404149412404009A019B0D005543641B95
:102EB0004343E41A95B286B27543170C7E43030C64
:102EC0005F4392B25A43B61802D301221204BF18CC
:102ED0003204330C52197B4152429C41002C02D4E3
:102EE0000022013051414008CA071043490802B08E
:102EF0006246D7079210084BD218084B9A4203D269
:102F000012058918C919F0BD0020002A01DC39001A
:102F1000F0BD01331905F5E7FD030000FE070000D1
:102F20004A00520D144BD21A13DDFF2A1EDAD205C5
:102F3000CB0FDB071A43C300400F0903490A0843BC
:102F400010435B0001D301D0013070474308FBD22E
:102F5000704702D0C80FC00770470A03121301322E
:102F6000F8D1420F072AF5D1012200E0FF22C80F55
:102F700000028018C00570478003000000210A008D
:102F8000002104E000210A00C11704E00022002310
:102F900006E0C0460022CB1758405940C01A99415C
:102FA00030B5184CA21A002903D1010010D000201E
:102FB000203A4C1512D104D2013A001849414C0D67
:102FC000FAD3114CA24204D212058918DB07C918A2
:102FD00030BDD243520D00200021F5E703D4013A61
:102FE00000184941FBD50B324405C00A4D05284362
:102FF000C90A640003D0002460416141E1E7E0D3E5
:103000004408F8E732040000FE0700000A0DCC0F68
:10301000531E1B05C91A520503D3C943404200D3AE
:103020000131520D03D0531CDB0A07D0121B0020C4
:103030006400611C89078912803A1203014BD21A7D
:1030400070470000FF030000023225D40C2A1CDA6E
:103050001125AD1A0B002B41083207350600EE4052
:10306000904091403143F0CC63431A1500235A41FC
:10307000554356435743BF02F4127605761967410C
:10308000ED177F19801BB94170470C220020C9172A
:10309000490001310905DBE70902030E194300026B
:1030A0005342203208D40C0019419440D8402043A8
:1030B00000225041514170470800C917203B20327F
:1030C000F1D500200021002270470000F0B5FFF785
:1030D0009DFF54A4FFF7B8FF002904DA204C214DCE
:1030E00000196941013A04B4012752A600220123C4
:1030F0009B0730CEB446001BA9410BD47E4220363C
:103100001D003D411C00B4401600FE4034436241A6
:103110006B4101E00019694166460137212FE8D172
:1031200085B29EB2754307147E43190C4F4384B297
:103130004C43F11736190024614109047F18340407
:10314000310C64197941A40F880020438917801835
:10315000594104BC52423E32FFF71DFFF0BD000052
:103160006BDE73F4FD855C2CF0B54F0050D27F15FB
:103170004ED001374FD0FFF749FF04B44902C20DCA
:103180001143400201272BA6B446002200237E42B1
:1031900020360D003D410C00B4400600FE40344393
:1031A00044414D41AE0F05D120002900664630CE86
:1031B000121BAB410824A4440137212FE7D1890019
:1031C000891012184B4180BC17A413CC01377843E7
:1031D00079437C434F05C912CD17C0196941A70235
:1031E000A415CD17C9196C41DD17801859416C41E0
:1031F0003E22CD17AC4208D000090E073043090922
:10320000260731432411043AF3E7FFF7C4FEF0BD6B
:1032100002490020F0BD02490020F0BD0000F0FF8F
:103220000000F07FAAB800006BDE1300A3EF0F00D0
:1032300021170B00F34B98BFEC23F319D6104DCD9B
:10324000E3FB470E7AB9BC8ADBC18907CC542C0258
:103250001846E103053083E7B029F8011E1FE08717
:103260004505FE00249E41ACA9807F008117624580
:1032700015E03F00E610ABA902F81F00885845553D
:1032800000FE0F00C4AAA90A80FF07005645550199
:10329000E0FF0300ABA92A00F8FF01004555050037
:1032A000FEFF0000AAAA0080FF7F0000551500E085
:1032B000FF3F0000AB0200F8FF1F0000550000FEBA
:1032C000FF0F00000B0080FFFF0700000100E0FF80
:1032D000FF0300000000F8FFFF0100000000FEFFF8
:1032E000FF0000000080FFFF7F00000000E0FFFF04
:1032F0003F00000000F8FFFF1F00000000FEFFFF7E
:103300000F00000080FFFFFF07000000E0FFFFFF4D
:1033100003000000F8FFFFFF01000000FEFFFFFFB9
:1033200000000000000000800000000000000040DD
:10333000000000004840414048400E4B5B68184781
:103340000C4B1B6818470C4A936F9B0802D2094B21
:10335000DB681847F0B5146E556E576F166FFFF7A0
:10336000F6FF054A1466556657671667F0BD014BB0
:103370009B68184770040020000000D0491A0028FC
:1033800008D1084670470000C10FC90700D5404268
:10339000002817D0F44603B40B4B1B68984706BCB3
:1033A00081409E384042803107D20B0607D0490049
:1033B000490AC0051043084360470130F8E7490A4D
:1033C0008902F5E7704700003406002041000A0E2C
:1033D00080231B067E2A0BDD9E3A0BDAC1174002C2
:1033E000400818435242D0404900013148437047D9
:1033F00000207047C00FC01801387047C0420DD37D
:1034000000B540004008002100F012F8002801D467
:10341000404200BD8020000600BD0000034BDB6978
:10342000FC4618471CDFE134001000007004002047
:10343000014B5B6A1847000070040020034BDB6FF0
:10344000FC4618477CDFF9340010000070040020AF
:10345000132310B512481C78FEF784FC0100012CE0
:103460000AD003DD80220F4800F066F80E48FEF710
:1034700071FC0E4B186010BD0A4C5422200000F065
:103480005BF80B4B6365A365E36523666366A36620
:10349000E36623676367A367E3672362E361E5E7A6
:1034A00053460000700400204C3300003406002016
:1034B000B534001007B5604601880A0A0230DF2AD9
:1034C000FAD1C9B2820804D30288408800041043AC
:1034D00000E00068014A5050039007BD70040020CE
:1034E0000021C2158032803201D0024A10470020EC
:1034F00070470000CD2A0000C30FDB0741000A0E11
:1035000007D0FF2A08D00909054A8918194340073E
:1035100070471900002070470249C918FAE70000F7
:10352000000000380000F07F01480421014B1847DB
:1035300020020020751D0010014B5B681847000039
:1035400020020020030010B5080011001B689847F6
:1035500010BDC046F0B546464F46D646C0B5437D81
:1035600080460E001700002B46D0002A3FDD4B1E80
:103570009946244B0125002400209A460DE04B4635
:103580001B5D0D3B5A425341325DDBB20A2A0BD020
:103590002B00013401359F421ADD002CEFD1434648
:1035A000325D1B7D0A2AF3D1002BF1D1A04204DA4F
:1035B0004346211A1B6830189847434650461B68FB
:1035C00002219847013428002B0001359F42E4DC9A
:1035D000874204DD4346391A1B6830189847F619AC
:1035E000013E33780D3B5A42534142461375E0BCCD
:1035F000BA46B146A846F0BD0368110030009847AE
:10360000F5E7C046803E0010F0B5DE4657464E4610
:103610004546E0B585B017001C0006000D00FDF71B
:10362000D5FD0023304A12184B41002B58DB2F499F
:1036300008008A4600F0C0FB01906B1C03D13000EB
:1036400000F07AFB0500002C25D1294B9846294B28
:103650001C68002C15D0002F20D1274F02E02469D0
:10366000002C0ED02368002BF9D03B68002B01D032
:10367000A342F4D120002A003100C0472469002C65
:10368000F0D1019B002B27D105B0F0BCBB46B24660
:10369000A946A046F0BD194B9846D8E7164B994667
:1036A00002ABDF1D0A239B4602E02469002CE8D010
:1036B0002368002BF9D04B461B68002B01D0A34296
:1036C000F3D12A0031002000C0475B4601223900B7
:1036D00020003B70C047E8E7504600F05DFBD3E7B1
:1036E0000122074B5242A2E740420F005002002045
:1036F000553500101406002018060020453500102E
:10370000FFFFFF7FF0B5CE46474680B583B06B46DE
:103710000600DD1D2870FDF759FD00231A4A121816
:103720004B41002B2BDB19490800884600F044FB75
:10373000174B81461C68002C14D0164F02E02469F8
:10374000002C0FD02368002BF9D03B68002B01D050
:10375000A342F4D1200001222900FFF7FBFE2469D7
:10376000002CEFD14B46002B05D1300003B0C0BC7C
:10377000B946B046F0BD404600F00EFBF5E7012229
:10378000054B5242CFE7C04640420F005002002096
:103790001406002018060020FFFFFF7F70B504000C
:1037A00000F0CAFA00230100050001222000FFF703
:1037B0002BFF084B1C68002C06D06368002B05D03B
:1037C00098472469002CF8D1280070BD2469002C8A
:1037D000F3D1F9E7140600200A4A1368002B05D13B
:1037E0000CE01A001B691032002B07D09842F8D168
:1037F000002902D103691360016170470029FCD0E0
:103800001060FAE71406002010B500F0C5F801209A
:1038100010BDC046F0B50D1E15DD0E4B0D271A6804
:103820000D4B4519D31859424B410C495B005E5E64
:1038300020210478A64207D093691942FCD10130B7
:103840001460A842F5D1F0BD93691942FCD117600C
:10385000F2E7C046942500200080FCBF90250020A0
:1038600030B504000D1E26DD002010211B4B013C4D
:103870001A689369194219D1013093691942FCD130
:10388000136823548542F4D1154B1B68002B0CD0D0
:1038900050239363516B183B34320B40110080224C
:1038A00052010A431360002815D030BD0C4B1B6831
:1038B000002BEDD1F7E70A4B1B68002B0BD05022F1
:1038C0003821064B1B689A635A6B343311408022AF
:1038D00052011343196003204042E6E7942500207B
:1038E000A4050020064B10B51B68002B06D0002154
:1038F000044A12689163044A1068984710BDC04694
:10390000A405002094250020A80500201D4BF0B53B
:103910001A68C64698461C4B0E00D31859424B41B4
:103920001A4F14331C00050000B53B68002807D06F
:10393000002B11D0164B3D601E6080BCB846F0BD18
:10394000002BF7D0906300212000FCF725FF20001A
:103950001049FCF771FFEDE720000E49FCF742FF2C
:1039600001212000FCF718FF4346502238211B6834
:103970009A635A6B34331140802252011343196009
:10398000D8E7C046942500200080FCBFA405002095
:10399000A8050020E538001010B50C4B0C4C1B7826
:1039A0000C4B02211B780C4B00202360FCF708FE17
:1039B00002210120FCF704FEE12120684902FDF705
:1039C000BDFE01210548FFF707FF10BD183F00109D
:1039D000942500201C3F00100040034030020020CE
:1039E0000B4B10B59C46604443425841094A840041
:1039F00082B0009208482200E31CFCF765FE844276
:103A000002DC001B02B010BD01204042FAE7C046B4
:103A10000000D0AFC43E001099250020F0B5D64676
:103A20004F4646468846C0B505240600FCF714FEFE
:103A300043461F791C57284B8146F0184342584192
:103A4000264B9A4683009C4653466246985801226C
:103A50002023BA40DB1B013A002C32DB9C422DDCD8
:103A6000A2401500104229D1002F1AD043465A789F
:103A700019781202114342469B78D2781B040B43FB
:103A800012061A439046002241465300C95A4B0B76
:103A900000D10919131912339B0001329951974231
:103AA000F2D85346624605439D504846FCF7E0FD78
:103AB0002000E0BCBA46B146A846F0BD0848FEF773
:103AC00003F9002B02DAF9E7013BF7D315009D401B
:103AD0001C000542F8D1C7E70000D0AF8C050020DC
:103AE000E83E0010F0B557464E464546DE4689464C
:103AF000E0B583B00CA90D78494649008846494491
:103B0000C900461837003400DC3701903868CC34DF
:103B100083462068C02482460198CC318446A401A3
:103B2000614421438024A4020C60691E8D411F2141
:103B30006D420D4016498C466544052B0ED9A021D7
:103B400049058C461F21D83660465401044305328E
:103B5000053B3C600A403560052BF5D841465201D3
:103B60009B0613434944019AC90050180200DC32F5
:103B700013600300D8331D605B4613605346CC309E
:103B8000036003B0F0BCBB46B246A946A046F0BDF8
:103B900080E00000F0B501258D400468AC434D0085
:103BA00004606C18E40004192600C836002B28D0E5
:103BB0001F68DC3437605F6877609F68DB68B760D8
:103BC00023606D18EB001D008024D0354519640179
:103BD0002C4380252D062560256001250F4C2E00E5
:103BE0008C4084600C1DA640802408318D401F212C
:103BF000A4010443C0180A40D83026602560026042
:103C0000F0BD80277F023760F8277F027760C027EA
:103C1000DC343F03B7602360D3E7C04601010101F4
:103C200003BDC04610B50400FCF738FFA04710BD27
:103C3000F0B5040087B00F200E001700FCF7BEFDA2
:103C4000002105000F20FCF7A7FD002300220092B1
:103C5000019301230293D0230496059400260024A7
:103C60000121022003971B06002C14D01A6D10426C
:103C7000FCD05C6540BF1A6D114203D120BF1A6DA4
:103C80001142FBD09A6DA2420AD000266C46B200C7
:103C9000A458E9E79A6D1A6D1142FBD140BFE5E7E0
:103CA0000136052EF2D929000F20FCF775FD07B06B
:103CB000F0BDC0460B4B0C4A10B5934201D2012314
:103CC0005B421900094A985004329B50084A094B3C
:103CD0000948CA50094B9A68044B9C466144FFF757
:103CE000A7FF10BD0008042000000420F407000016
:103CF000253C0010FC070000213C001000ED00E016
:103D000001230121084A1360084A1360084A080089
:103D100093689843FBD1074A1160802149001368DA
:103D20000B42FCD07047C04600E0004000F000406D
:103D300000C0004000C0044010B583070AD0030053
:103D4000032102E001330B4205D01A78002AF9D191
:103D5000181A10BD030019680C4A0D4C8A188A43C2
:103D600022420FD15968094A04338A188A432242F1
:103D700008D15968054A04338A188A432242F1D08F
:103D800000E001331A78002AFBD1E1E7FFFEFEFED6
:103D900080808080F8B5C04601B40248844601BCEA
:103DA000604700BF5D01002001B40248844601BCA9
:103DB000604700BF8501002001B40248844601BC71
:083DC000604700BFC1000020B4
:103DC800D03D001003FF00000860A0800000000044
:103DD800486172647761726520616C61726D20253B
:103DE8006420616C726561647920636C61696D65DA
:103DF800640000000A2A2A2A2050414E4943202AFA
:103E08002A2A0A000A00000048617264206173735C
:103E18006572740052656C6561736500626F6F74DA
:103E2800325F77323571303830000000312E352E50
:103E3800300000007069636F000000005069636F14
:103E480056434F5F523252004F6374203233203250
:103E58003032330006005250BBFF3CB63C3E0010E7
:103E680006005250E182887F243E0010060052501E
:103E7800D3F075421C3E00100D0A00005541525403
:103E880020737464696E0000554152542073746441
:103E98006F7574005541525420737464696E202FF5
:103EA800207374646F7574000600525053B4F4A103
:103EB8009C3E001008005250920000004E6F2050A7
:103EC800494F207374617465206D616368696E651C
:103ED800732061726520617661696C61626C65004E
:103EE8004E6F2070726F6772616D207370616365C9
:043EF80000000000C6
:103EFC00AC020010A0020010940200105C3E0010F6
:103F0C0088020010683E0010743E0010B03E001095
:043F1C00BC3E001097
:103F2000F0B5C646150000B504001E000268EFF3A8
:103F3000108172B61368002BFCD0BFF35F8F04238F
:103F4000E356002B2DDB2268BFF35F8F002010604B
:103F500081F31088D0221206127852B290469A420B
:103F600003D1002080BCB846F0BD00270BE02368D9
:103F7000BFF35F8F1F6081F310882800310000F0CD
:103F800033F80028EDD12268EFF3108172B6136880
:103F9000002BFCD0BFF35F8F23797F2BE7D94346FB
:103FA00002E0D0231B061B6823712368BFF35F8FD9
:103FB00000221A6081F310880120D3E70268EFF332
:103FC000108172B61368002BFCD0BFF35F8FFF2304
:103FD00003710368BFF35F8F00221A6081F31088BA
:103FE00040BF70477047C04601B40248844601BCD8
:103FF000604700BF811000101000000000000000AA
:1040000000000100000000000000000000000200AD
:10401000000000000000000000000300000000009D
:10402000000000000000FF000000000001B548682B
:1040300001318E460047704609380149884701BD65
:10404000E9090010FC0100200000000070020020BF
:10405000D40500200000000000000000E40500205E
:104060000000000000000000100000000000000040
:10407000503300004C330000543300005233000032
:104080004D5300004D430000533400004334000002
:104090001538001000000000613800100D390010C4
:1040A000000000000001000000000000000000000F
:1040B000000000000000000029350010451D001020
:0C40C000F51F001051340010E502001044
:04000005100001E9FD
:00000001FF
