:020000041000EA
:1000000000B5324B212058609868022188439860DF
:10001000D860186158612E4B002199600221596106
:100020000121F02299502B49196001219960352056
:1000300000F044F80222904214D00621196600F024
:1000400034F8196E01211966002018661A6600F04E
:100050002CF8196E196E196E052000F02FF8012189
:100060000842F9D1002199601B49196000215960AB
:100070001A491B48016001219960EB211966A021F2
:10008000196600F012F800219960164914480160C1
:100090000121996001BC002800D000471248134993
:1000A000086003C880F30888084703B5996A0420EC
:1000B0000142FBD001200142F8D103BD02B5186610
:1000C0001866FFF7F2FF186E186E02BD00000240BE
:1000D000000000180000070000035F00212200005C
:1000E000F4000018222000A00001001008ED00E03C
:1000F00000000000000000000000000074B24E7A12
:1001000000200420F7010010C3010010C5010010F9
:10011000C1010010C1010010C1010010C101001097
:10012000C1010010C1010010C1010010C701001081
:10013000C1010010C1010010C9010010CB01001065
:10014000CD010010CD010010CD010010CD01001037
:10015000CD010010CD010010CD010010CD01001027
:10016000CD010010CD010010CD010010CD01001017
:10017000CD010010CD010010CD010010CD01001007
:10018000CD010010CD010010CD010010CD010010F7
:10019000CD010010CD010010CD010010CD010010E7
:1001A000CD010010CD010010CD010010CD010010D7
:1001B000CD010010CD010010CD010010CD010010C7
:1001C00000BE00BE00BE00BE00BE00BEEFF3058054
:1001D000103800BEF2EB8871F86600101867001046
:1001E0003402001090A31AE700201F49086006C8D7
:1001F00081F3088810471D48006800282FD10DA4FE
:100200000ECC002902D000F012F8F9E71849194A7B
:10021000002000E001C19142FCD1174988471749ED
:1002200088471749884700BEFDE701C901C29A42C5
:10023000FBD3704718670010C0000020180F002083
:10024000707500100000042000000420707500107C
:10025000001004200010042000000000704709482E
:1002600001F090FF0047000008ED00E0000000D022
:10027000180F0020787A0020FD1F0010B503001031
:10028000F12000105756000006005250ABB36053E7
:100290007464001006005250861C0302846400102F
:1002A000060052505422A29D9C640010050052503A
:1002B000DE65F46870750010F8B5C04610B5064CE0
:1002C0002378002B07D1054B002B02D0044800E017
:1002D00000BF0123237010BD201200200000000089
:1002E000C0630010044B10B5002B03D00349044831
:1002F00000E000BF10BDC046000000002412002036
:10030000C06300101E4BF0B51A681E4B01211C681B
:1003100057462300103399401B4B4E469C46012301
:100320009A4600239946FA23DE464546DB009B4663
:10033000E0B50434154D164FA40063461B78002B1E
:100340000AD056462B680133D80F1B1833401B1AAE
:100350002B6048466346187000202E6873019B1B73
:100360009B009B191B011B189B00FB589846536868
:100370001942FCD143460130A3505845EDD1DCE78A
:10038000147A00203C7A00206E7A0020187A00202F
:100390009817002010B504001F2100F071F9002209
:1003A0002000002100F084F90021200000F098F9DD
:1003B00010BDC046F0B5DE46454657464E46E0B550
:1003C0008DB003F059FC7A4801F072F805F04AFF4D
:1003D0001A20FFF7DFFF1B20FFF7DCFFFA210125C2
:1003E000FA270024734EFF223000C90000F00CF9F8
:1003F000714B7F0198461B680133DA0F9B181D4033
:10040000AA1A5501AD1AAD006C4BAD18AD01ED182F
:10041000305903F0EBF903F00BFA28510434BC42D5
:10042000F6D142460123664D66486749136028604D
:1004300005F0A6FD01218146286805F083FD2B68A3
:100440008022984600230793F82352025B0204920D
:100450000593C0235D4E1B031022306004A90700E2
:1004600008A8069303F0A0FA4B464A460233D2018D
:100470001B03134308A9102204A8099303F094FA5C
:10048000534B00240693534B43445A1E9341063367
:100490009A4620005146013400F0F2F8082CF8D1B9
:1004A00080247B00DB19DB004344DC331A684A49B3
:1004B00024040A4022431A6001238A469B460022F4
:1004C000390040460093073305F0BEFD079B390015
:1004D00003935346039A404613401C433F4B4A46FE
:1004E000049304AB079405F007FE43461A685B4685
:1004F000BB40134342463A48136005F08DFE39482D
:1005000003F084FBE021384AC90113680B403749E6
:100510000B600421364B1960FC3113680B42FCD090
:1005200050680004000C03F061F9324903F051F9FE
:1005300003F0B6F90B0080210200C905002002F08B
:100540002BFB00222C4B01F0A8FE01F047FF2B49AA
:1005500003F03FF92A4903F03CF9011C294803F054
:1005600024F933688146984603F094F984B2002355
:100570002F68002C0ED0200003F032F9011C4846F1
:1005800003F00DF98721C90503F023F903F082F97F
:10059000C3B21B0224041C4343465B004344DB00FC
:1005A000FF18C8370A203C6000F082FFAAE7C04667
:1005B00010270000D45A0020187A00209817002035
:1005C000147A002000002050D06300103C7A0020F4
:1005D00000000C300000E0AFE0FF0FFC003E3100F7
:1005E00005030010C063001000C0044000D00440A8
:1005F00000E004403333533A0000594000004040CB
:100600000000FA4490F4F74CF8B54746CE468046D1
:1006100080B54D081700002D2ED0100003F0E0F833
:10062000041C280003F0DCF8011C201C03F0BDF8BA
:100630000024061CA3009946200003F0D7F8311CC3
:1006400003F0C7F803F0F4F843464A4601349850E3
:10065000AC42EFD10024A8008044200003F0C6F88B
:10066000311C03F0B6F803F0E3F84346381A01C32F
:1006700001349846AC42F0D1C0BCB946B046F8BD92
:10068000094A830094464022634410B51C68C000A8
:100690006240C02414408022520113431C60034B6B
:1006A0009C466044416010BD04C0014000400140D0
:1006B0000A4B80009C4604236044002901D00C238F
:1006C0000821002A00D10B00026853400C221A4076
:1006D00080235B01184302607047C04604C001409C
:1006E000084B80009C466044002905D080239B0174
:1006F0001843402303607047C0239B0118434023E5
:100700000360F8E704C00140024B18688007C00F7F
:100710007047C04600C00640EFF3108072B6034A2F
:100720001368002BFCD0BFF35F8F70472C0100D003
:10073000BFF35F8F0022024B1A6080F3108870476E
:100740002C0100D070B5EFF3108C72B60D4D2B68F4
:10075000002BFCD0BFF35F8F0724CB08C618C05C0A
:1007600001230C40A3401C000440034207D1034373
:100770003370BFF35F8F2C608CF3108870BD100056
:1007800001F0BAFC2C0100D0F8B54746CE468846A9
:1007900080B5EFF3108C72B6214D2C68002CFCD084
:1007A000BFF35F8F9A422CD8D4080727055D06193E
:1007B00001241740BC402C421FD007210127894645
:1007C00009E0D408055D06194C4639001440A140E3
:1007D0000C00294211D001329342F2D20120404252
:1007E000BFF35F8F00220E4B1A608CF31088002835
:1007F0000FDBC0BCB946B046F8BD2C4310003470C6
:10080000EEE7BFF35F8F00232B608CF3108801208D
:1008100040424346002BECD0089801F06DFCC046E6
:100820002C0100D00021044B044ABFF35F8F02C3A8
:100830009342FAD17047C046000100D0800100D039
:10084000044A1078431CDBB2172B00D91023137015
:100850007047C046180E002000B5054B83B001005C
:10086000009318221F230348FFF78EFF03B000BD3B
:10087000E06300102056002001238340002904D0AB
:10088000034A1360034A13607047034A1360FBE78F
:1008900080E200E000E100E080E100E0012282402F
:1008A000034B1B6813405A1E9341D8B27047C04691
:1008B00000E100E001238340014A13607047C04615
:1008C00000E200E0084B10309B688000C358002B0A
:1008D00007D0064A00209B1A2F229A424041C0B2FC
:1008E00070470020FCE7C04600ED00E01C0E002031
:1008F000024B10309B688000C058704700ED00E04C
:1009000070B50D00EFF3108672B60F4A1368002B16
:10091000FCD0BFF35F8F0D4B10309B6884001B59D8
:100920000B4A934203D09D4201D001F0FDFB074BDF
:100930009B681D51BFF35F8FBFF35F8F0022024B97
:100940001A6086F3108870BD240100D000ED00E02D
:10095000CD010010F0B557464E46DE464546E0B59F
:1009600085B0060002911700EFF3108B72B6674A4C
:100970001368002BFCD0BFF35F8F0025644B5D57DD
:100980009A46002D00DAA4E06B00624C03935B19D9
:100990009B009846A146C1444B4652469B7910366F
:1009A00013705D4BB2009B68019299580B1B2F2B63
:1009B00034D95A4B994200D0A4E0039B584A9C4634
:1009C000584B6544AD006353434602336519E41840
:1009D000554B0121043B1B1B1B055B0D13436B8017
:1009E000524BEF71AB80FF23AB71029BAB604B4668
:1009F0000B431900484B019A9B689950BFF35F8FD6
:100A0000BFF35F8F0022414B1A608BF3108805B053
:100A1000F0BCBB46B246A946A046F0BD01200A0084
:100A20008243D379BB422FD845464E4613004049F6
:100A30001B1B5B415943090D3A4B63533A4B02353B
:100A40006519043B5B1B1B05354D5B0D2B43738008
:100A50000426B446E0444444131F1B1B4C46A171BA
:100A600002991B05A16049465B0D2B43A380314BC6
:100A7000E77101431360BDE75800C01880002018DB
:100A8000C679BE422BD902000623D356002BF3DAD7
:100A9000101D82462848804604267642B446E1442A
:100AA00050464E46361A3005400D824656461C4882
:100AB000957106439680039A944665441D4AAD009D
:100AC000641922604246A371029BA280E771A36071
:100AD00090E701F029FB002553465D5754E7101DB0
:100AE000824690884005001584464046D4446646B8
:100AF00004302018301AE0260005400D360230433D
:100B00008046C9E701F010FB57E7C046240100D03A
:100B10006F7A00201C0E002000ED00E0CD010010D7
:100B200000E0FFFF00A1FFFF4C0E002001BDFFFF12
:100B3000AAAA00000148804701BD0000F0B5DE46CA
:100B400057464E464546E0B50C0083B0EFF310899A
:100B500072B6584A1368002BFCD0BFF35F8F564B18
:100B60009A68030010339F00D559544A9046954225
:100B700032D0A54243D0524EAA1B2F2A2CD8012294
:100B80008240924651464F4A1268114001915146A7
:100B90004D4A1160BFF35F8FEFF305829346002A41
:100BA00033D101232A009A4393689C4208D177E00D
:100BB0004B005B189B00F3189968A1422AD01A00D9
:100BC000062151560029F3DA019B002B19D0524619
:100BD0003E4B1A603B4B1A60374B9B68DD51BFF3AD
:100BE0005F8FBFF35F8F0022324B1A6089F310884A
:100BF00003B0F0BCBB46B246A946A046F0BD150006
:100C0000EAE75246304B1A60E6E79342C9D001F05A
:100C10008BFAC6E706215956002921DB4A005018F5
:100C2000800034188046A0689860E079D87106206A
:100C300020569871002824DBA488F01A6405241536
:100C400044440019E0240005400D2402204398800C
:100C500052181F4B9200B6181A781970B271B3E788
:100C6000594600290FD1FF3191711A4991801849D5
:100C70000A789A71184A9B1B5B415A43120D0A70FD
:100C8000A2E71648E3E7164A1649D21A083A500274
:100C9000400D01439980144952080A43DA8093E7D2
:100CA0000621515613000029B8DA5A46002AEAD123
:100CB0004546DCE7240100D000ED00E0CD01001046
:100CC0001C0E002000E100E080E100E080E200E096
:100CD0006F7A002001BDFFFFAAAA000001BD00003D
:100CE000560E002000F0FFFF00F8FFFF70B5EFF395
:100CF000058101240443EFF3108C72B6214A136876
:100D0000002BFCD0BFF35F8F1F4B05001F4AED1A6D
:100D10006D416A43120D1E4D8900AE6852B276587D
:100D2000A6421CD00621595691421CD01221595678
:100D3000914222D01E215956914220D02A21595643
:100D40000324914210D0134B19781A708171BFF3AC
:100D50005F8F00220B4B1A608CF3108870BDAB685C
:100D60000D4C5C50EFE700246100091989005B1805
:100D7000FF21997109499980E5E70124F4E70224EC
:100D8000F2E7C046240100D01C0E0020AAAA0000F1
:100D900000ED00E06F7A0020CD01001001BDFFFFE3
:100DA000054B064A1360064A136053609360D36094
:100DB00013615361936170478080808000E400E09C
:100DC00004E400E000B5074B83B00100009300226B
:100DD00005230548FFF7D8FC002801DB1F23181A5C
:100DE00003B000BDFC630010747A0020024B9C46E7
:100DF00061448900016070474000003410B5040070
:100E0000FFF71EFD01002000FFF7F0FFFF23237115
:100E1000BFF35F8F10BDC04610B50400FFF710FD93
:100E200001002000FFF7E2FFFF23A380BFF35F8FE5
:100E300010BDC04610B504000120FFF70DFD044BA6
:100E40009C46604480002060BFF35F8F10BDC046A9
:100E500040000034034B9C46614489000160BFF3AD
:100E60005F8F70474000003483680B4810B584469C
:100E700061446244090112019A18591854684B6878
:100E800001209C4201D802D00020C0B210BD1268DF
:100E90000B689A42F9D8F7E7FFFFFF0F0A4B196872
:100EA000EFF3108072B60A68002AFCD0BFF35F8FA0
:100EB0001B68BFF35F8F00221A6080F3108840BF69
:100EC000002000217047C046387A0020F8B5574608
:100ED0004E464546DE46E0B599460CAB1C780DAB58
:100EE0001B78060090469A460768002C11D1BC7BFF
:100EF000002C42D065003B682D19033D59194B78F1
:100F0000BB73002B00D1FB7300238B704B700B70F5
:100F100004E065003B682D19033D5919B2682A4B5E
:100F200094464246E3181B0163441A604A465A60DD
:100F30000A9A9A600B9ADA6000238B704B700B70E0
:100F40007B7B9B46002B2BD022005946B8687B68E0
:100F500098473A68002816D05B4658465B005B44C9
:100F60005519033BA870D118D35C002B00D06B70CF
:100F70005B460C707B73A34513D0F0BCBB46B246F6
:100F8000A946A046F8BD5B465B005B44033BD31813
:100F90009C705119525D002A00D05A705B460B704C
:100FA0007C7342464B46307D00F0A2FB051E06D006
:100FB0005346002B03D12100306800F0C3FD0E9B87
:100FC000002BDAD01D70D8E7FFFFFF0FF0B5DE462B
:100FD00057464E4645460023E0B58BB00893664B16
:100FE0008200D45800239B46099000F021FB6268E0
:100FF00006000F00EFF3108572B61368002BFCD0CB
:10100000BFF35F8F23689C465B7B9946002B68D0BB
:10101000A2685A4B90464B441B01984443461A68B9
:101020005B6810001900801BB941002963DD099835
:1010300000F05EFB002300229846002306920793EF
:1010400000239A466368BFF35F8F5A461A6085F3A0
:1010500010885346002B08D10028C6D10BB0F0BC35
:10106000BB46B246A946A046F0BD089B41461802C1
:101070004B461843D047626806000F00EFF3108517
:1010800072B61368002BFCD0BFF35F8F002F4FDBCD
:1010900033003B4302D02369002B60D12368D97B06
:1010A000002907D04A00521819688C464946624404
:1010B000033A51709A7B002A01D14A469A734A46F4
:1010C000DA734B46E168013BCA5C0132CA545B46A5
:1010D00023616368BFF35F8F5A461A6085F31088F7
:1010E00083E70023002298460023069207930023FB
:1010F00000209A46A6E7002901D1002897D10021B7
:10110000604600F09DFC43461A685B6806920793B0
:1011100043469B689A464346DB689846E3684B44DF
:10112000013B1B7808931B0203432361002089E7DE
:101130002369002BB2D0069A079B921BBB41002B60
:1011400015DB59460491012103914946029141461C
:101150000191514620000091FFF7B8FEB7E700F07B
:1011600067FA32003B0012184B41002BE9DA0122EA
:10117000034B5242E5E7C0461C7A0020FFFFFF0FF9
:10118000FFFFFF7F10B5144C6368002B04D00A21C9
:101190001248FFF72BFE10BD2300114A10212068D2
:1011A00000F068FB032000F037FA032000F010FB8A
:1011B00003200C4900F056FAFFF742FB0A4B9C460D
:1011C00003232375D0231B061B6860446375074BFC
:1011D00080006060DC60DAE7640E0020387A00206E
:1011E000690E0010CD0F0010400000341C7A002062
:1011F00000487047640E0020F0B557464E464546FD
:10120000DE46E0B585B0019310AB1B780600039372
:1012100000239A46984600927268EFF3108972B6DE
:101220001368002BFCD0BFF35F8F3568AC7B002CBC
:1012300049D067002B683F19033FDB195A78AA731E
:10124000002A00D1EA73B168484A8C460098019997
:10125000A21812016244106051600E9991600F99BA
:10126000D16042469A705A701A706B7B9B46002B75
:1012700045D022001900A8686B6898472A680028A2
:1012800030D05B4658465B005B44D719033BB870CF
:10129000D118D35C002B00D07B705B460C706B7355
:1012A0005C452DD0F3681B19013B18787368BFF3B8
:1012B0005F8F42461A6089F310885346002B2CD169
:1012C0000002204307E07368BFF35F8F1C6089F35F
:1012D00010880120404205B0F0BCBB46B246A9468A
:1012E000A046F0BD5B465B005B44033BD3189C709B
:1012F000D119D25D002A00D05A705B460B706C7316
:10130000307D009A019B00F0F3F982460028C9D095
:101310002100306800F016FCC4E7039B002B23D0AB
:101320000E9B00200F999847030004000D000B430B
:101330001AD000290ADA009A019B121BAB410092D5
:101340000193002B0ADB039B9A4665E700F070F9D6
:1013500024184D4100940195002DF4DA0123044C2A
:101360005B4200930194EEE70020B4E7FFFFFF0F1C
:10137000FFFFFF7F70B542680400EFF3108572B67F
:101380001368002BFCD0BFF35F8F2068CEB2437B85
:10139000B3420AD0FF230B405A00D3180268944688
:1013A0006344033B9B78002B13D0E268FF239446F1
:1013B0000B406344013B0A0A1978D2B291420ED025
:1013C00000206368BFF35F8F00221A6085F31088E6
:1013D00070BD22698A42F3D100202361F1E7310018
:1013E00000F0B0FBEDE7C046407D7047F0B504006B
:1013F0000D0006267642F717C64636196F4100B52E
:1014000084B08F4214D811D000F012F932003B00A2
:10141000121A8B41002B15DC002B3ED02000290036
:1014200000F010F904B080BCB846F0BD8642EBD99C
:101430000026002700F0FCF832003B00121A8B4116
:10144000002BE9DD002302930193154B320000933A
:1014500014483B00FFF7D0FE0028DFDB002398464E
:10146000BC46114A114F7B6A9C4504D8B96A8E422A
:10147000D4D99C45D2D11168EFF3108072B60B68B5
:10148000002BFCD0BFF35F8F1368BFF35F8F414623
:10149000196080F3108820BFE5E7002ABED0D1E7AD
:1014A0009D0E0010640E0020387A00200040054098
:1014B00070B5060000F0BCF8FA2204000D0000230D
:1014C00030000021920002F04DF900196941002915
:1014D00002DBFFF78BFF70BD012001494042F8E7B6
:1014E000FFFFFF7F70B5EFF3058305000C0084B0AC
:1014F000002B0AD0164A0020536A9C4203D8926AF5
:101500000130AA421FD304B070BD124E0293019362
:10151000114B0200009330000B00FFF76DFE011E1F
:10152000E8DD20BF3000FFF725FF094B0020596A96
:101530008C42E8D89B6A0130AB42E4D2641A631E45
:101540009C41E0B2DFE7E41A631E9C41E0B2DAE7B7
:1015500000400540640E00209D0E0010F0B5EFF332
:101560000582D6464F4646461000C0B51038EFF308
:10157000108872B6214C2368002BFCD0BFF35F8F1C
:101580000123190081401E4D1F006963AA461D4DAD
:1015900029601D4D2E78AC463500C5402F402B42AA
:1015A00009D1BFF35F8F276088F31088E0BCBA468B
:1015B000B146A846F0BD5346144D5F6A83005D599D
:1015C000AF420ED3124A8E439B5862461670BFF349
:1015D0005F8F0022226088F31088002BE6D09847A6
:1015E000E4E70C4B92009C46624413681360BFF31F
:1015F0005F8F0023236088F31088D7E7280100D08D
:10160000004005403C700540737A0020487A002075
:1016100088160020D03F054010B50100024A03485B
:10162000FFF790F810BDC046186400106C7A0020D7
:10163000034B596A0A00986A596A8A42FAD170477C
:1016400000400540064A536A9942FCD807D1044B32
:1016500002E05A6A914202D19A6A8242F9D37047F3
:101660000040054070B504000D00EFF3108672B61F
:101670001A4A1368002BFCD0BFF35F8F002D1BD0DC
:101680002000FFF735F9164981420AD02000FFF704
:1016900037F901212000FFF7EFF80123A340114A99
:1016A0001360114BA400E550BFF35F8F00220B4B7A
:1016B0001A6086F3108870BD0B4BA200D550012232
:1016C000A2400A4920000B7893430B700449FFF7AE
:1016D00035FA00212000FFF7CFF8E5E7280100D018
:1016E0005D1500103860054088160020737A0020D0
:1016F000F0B54F46D6464646C0B507002F4C616A46
:101700000D00A66A616AA942FAD18B4208D805D0B9
:101710000120E0BCBA46B146A846F0BDB242F7D9B6
:10172000EFF3108A72B6264801680029FCD0BFF397
:101730005F8F0125BD402349204C884609788946A2
:101740002943C9B28C46414660460870391D1E487F
:10175000890065630A51B9000B50216A00202942B3
:1017600019D0616A0800A66A616A8142FAD18B4287
:1017700019D801D1B24216D8CC451DD00F4B1F202D
:101780001D625D6301230740BB40104A1E38136091
:1017900043464A461A70BFF35F8F0022084B1A6017
:1017A0008AF31088B5E70020BFF35F8F0022044B57
:1017B0001A608AF31088ACE70120ECE7004005408E
:1017C000280100D0737A0020487A002080E200E0EF
:1017D000EFF3108C72B60A490B68002BFCD0BFF3F4
:1017E0005F8F01238340074A0748136202789A43B8
:1017F0000270BFF35F8F00230B608CF3108870477B
:10180000280100D000400540737A002070B5050023
:1018100014001600002915D00C00002A12D0806890
:101820006B689847296800280ED073009B196200E6
:10183000033B1219CB18033A9C7088188A5C002A63
:1018400015D10670200070BD63001B197200033BA8
:101850009219CB18033A9E7088188A5C002A02D12C
:1018600004703400EEE75A7004703400EAE75A70EE
:101870000670E7E730B583600023CCB243730133D1
:10188000047342608373C4730D000068012C06D991
:10189000421C0133DBB2137003329C42F9D1FF21A9
:1018A00029404B005918002340180338437030BDBD
:1018B000F8B5CE46474606000C0080B5002907D093
:1018C0004D0003686D18033D5A195778002F04D155
:1018D0002000C0BCB946B046F8BD7900C91903392B
:1018E000884643445978894600215970517073687D
:1018F0003A002100806898473368002814D0424697
:101900009A18947059195B5D002B00D053700F70BA
:10191000270049463000FFF7CBFF390002003000B6
:10192000FFF774FF0400D3E7424641465D19AF70EC
:101930009A185B5C002B00D06B701470E9E7C0460E
:10194000F0B557464546DE464E46E0B50D006B0005
:1019500001685B19DF1E0400C85D83B00192CA19DB
:10196000002850D043001B18033BCB185E78B446C8
:10197000002E1AD1019E002E42D0E67B002E04D00C
:1019800073009B19CB18033B5D70A37B002B00D128
:10199000A573E57300282FD10023537003B0F0BC6A
:1019A000BB46B246A946A046F0BD72006244033A67
:1019B00089184A78904600224A7091465A70010070
:1019C00032002000FFF722FF43468246002B07D05B
:1019D0005B0021684344033BCB185A78002A16D198
:1019E000424651462000FFF711FF2168019BCA19AA
:1019F000002BC2D10028CFD043001B18033BCB18CB
:101A000000219970C8E7019B002BB6D1C4E75000B4
:101A1000801803380918487883464846487058703B
:101A200041462000FFF7F2FE594680462000FFF7AE
:101A30003FFF414602002000FFF7E8FE8046CFE767
:101A4000F0B557464546DE464E46E0B583B00191B7
:101A5000457B04006B0000685B19DF1EC15DC21985
:101A6000002952D04B005B18033BC3185E78B44684
:101A7000002E1CD1019E002E44D0E67B002E04D007
:101A800073009B19C318033B5D70A37B002B00D12F
:101A9000A573E573002931D10023280053706173C9
:101AA00003B0F0BCBB46B246A946A046F0BD7200EA
:101AB0006244033A80184278904600224270914670
:101AC0005A7020003200FFF7A1FE43468246002BE9
:101AD00007D05B0021684344033BCB185A78002AA7
:101AE00017D1424651462000FFF790FE019B0100AE
:101AF0002068C219002BC0D10029CDD04B005B1843
:101B0000033BC31800209870C6E7019B002BB4D19B
:101B1000C2E75000801803380918487883464846C1
:101B20004870587041462000FFF770FE59468046C5
:101B30002000FFF7BDFE414602002000FFF766FED1
:101B40008046CEE770B5040000292CD0437B8B4241
:101B50002ED0056848004018033828188278002ADB
:101B600021D053009B18033BEA5CEE188A4202D155
:101B70001BE0002A08D053009B18033BEB185A784F
:101B80008A42F6D142785A70002301228370437052
:101B90002000FFF7D5FE617B02002000FFF736FE34
:101BA0006073012000E0002070BD43783370EBE7E4
:101BB00001221900FFF7C4FE60730120F4E7C0465C
:101BC00030B50C2083B000F0B1F9FEF79DFD002880
:101BD0000ED0944B944A1A605A609A60DA601A6187
:101BE0005A619A61DA611A62904A5A6203B030BD52
:101BF0008F4CA06700F0EEF901228E4B1A60636CE7
:101C0000012BFCD103228C4B1A60894A936B012B68
:101C1000FCD101330121894A89480093043300F043
:101C20002DF90523874A00930121874800F026F902
:101C3000864B5A68FF2A02D8802252005A608022BE
:101C4000784C7D4B21691201804D1A60002905D026
:101C5000606900F0C9FA01300138FDD1E0217B4B09
:101C600002201A681140802252012A43116019682B
:101C7000484003210140116004219A681142FCD0C0
:101C80008022802192012A430901116080225200A2
:101C90005A606F4B23616F4B5968FF2900D85A6017
:101CA0000321644A6B4B116002399A681142FCD0DF
:101CB000E0201A681040802252011A431060186810
:101CC0004840032101400220116062498A681042A5
:101CD000FCD0802292011343802212011A608022DC
:101CE0005D4B52004A6063615C4B5968FF2900D824
:101CF0005A6080225A4BE1691201584D1A6000293E
:101D000005D0606900F070FA01300138FDD1E022A1
:101D100052490B681A4080235B012B431A608023D1
:101D200080229B012B4312011A6080223E4B5200FD
:101D30004A60E3614B4B5968FF2900D85A60802202
:101D4000494B216A1201474D1A60002905D060698C
:101D500000F04AFA01300138FDD1E02241490B6818
:101D60001A4080235B012B431A60802380229B0151
:101D70002B4312011A60802380225B004B602A4BA8
:101D8000D2022362394B5968914200D25A608022B4
:101D9000374B616A1201354D1A60002905D0606920
:101DA00000F022FA01300138FDD1E0222F490B6802
:101DB0001A4080235B012B431A60802380229B0101
:101DC0002B4312011A608023DB024B60174B6362C6
:101DD000284B5A68FF2A02D8802252005A6080227B
:101DE000254BA1691201234D1A60002905D06069B5
:101DF00000F0FAF901300138FDD1E0221D490B68ED
:101E00001A4080235B012B431A60802380229B01B0
:101E10002B4312011A6080235B004B600E4BA361C1
:101E2000E4E6C04624560020006CDC021BB700002C
:101E3000008000403CB0004030B00040002F6859A6
:101E400000800240008C864700C002403080004085
:101E5000001BB7003C80004040597307548000408D
:101E600054B000406080004060B000406C80004092
:101E70006CB000404880004048B00040F0B5C64615
:101E8000040000B50C2090461F000E0000F0ACF9D5
:101E90004101091A8D01691AC900091889014046D2
:101EA00000F0A2F9069B3F041A0323681743002B96
:101EB00022DB1A4B1A4DE21853425A4180235B0130
:101EC0009C461203174B62441A60174B1A601100AC
:101ED000AB689943FBD1C022231D92011A432123F1
:101EE0002660A06013602368002BFCDA0823E760FB
:101EF000136080BCB846F0BD3F2322681340B34254
:101F0000D7D1A3681B051B0D8342D2D1EE22E36813
:101F1000D2021340BB42CCD1EBE7C0460040FDBF2C
:101F200000C0004000E0004000F000408023024A72
:101F30009B000343D36270470080054010B5140036
:101F400080221B4BD2051A6000281AD00123194A9F
:101F50001843194BDA61194A42401A625962986271
:101F60008022134BD2051A601549164A1160E022EF
:101F7000D2041A60002C07D18022134B12061A607B
:101F800010BD0D4BD861EBE763011B1B9A0080234A
:101F9000121912015B049A4200D30C4A0C4B1A60CE
:101FA000054B5A608022084BD2051A60E8E7C0460C
:101FB00000B00540D3C007B0008005402D3FF84F6A
:101FC000FCFF01000820014000A00540FFFFFF00CA
:101FD000C45A0020AA23064A1B0113602F23054977
:101FE000D360054B19605368002BFCDA7047C0467C
:101FF0000040024000B0FA00006002402C4B2D4A25
:1020000070B51A602C4A2D4B2D491A6014008B684C
:102010009C43FBD12B4D2C4EB54208D2013E761B82
:10202000B60808CD984723000134B342F9D1FFF731
:10203000C7FD264A214B1A60214A9368DB43DB0126
:10204000DD09002BF9D14022214B224C224E9A6708
:102050005A671A67DA66B44208D223682000002B58
:1020600020D00834FEF7D8FEB442F6D31B4E1C4CE9
:10207000C022A168300001F097FCA660FEF7D2FBF9
:10208000FEF78EFEFFF77EF8164C174EB44208D2CC
:10209000013E361BB60808CC98472B0001359E42FE
:1020A000F9D170BD0834FEF7A9FEB442D5D3DDE7FF
:1020B00000E00040BFCDFBFEFE7F3C0000F0004092
:1020C00000C00040000F0020100F0020FFFFFF01A4
:1020D00000F00140F00E0020000F00200000002062
:1020E00000ED00E0100F0020180F002000BEFDE7FB
:1020F00010B5FFF7FBFFC0460FB400B5084883B02A
:1021000001F084FD049B002B07D005A91800019164
:1021100000F018F8034801F079FD0120FFF7E6FF11
:102120003C6400104C64001010B50148FFF7E4FF58
:102130005064001010B5002800D110BD01F01AFD48
:10214000FBE7C04610B5094A0300146884B0002CB0
:1021500008D0012200910648524203A9A04701205D
:1021600004B010BD01F052FD0020F9E7C05A002074
:102170003521001001480421014B1847900E002022
:10218000A5210010142310B50100188804331B8802
:10219000984710BD162310B50100188802331B881C
:1021A000984710BDF8B54746CE4680B50F1E19D0EA
:1021B00014239946043304000025012698464B4613
:1021C0001888434621681B88984701C4431E9841DC
:1021D000013540420640AF42F1D13000C0BCB946A3
:1021E000B046F8BD0126F8E7114A936F9B0813D259
:1021F00010665166002905D0FFE7FFE7FFE7516F42
:10220000106F704704B5002801D00020C04304F0CF
:1022100097F8002104BDC046F0B5146E556E576F97
:10222000166FFFF7E5FF1466556657671667F0BD32
:10223000000000D048404140484018B41B4B5B6848
:10224000FC46019308BD04DFDF2E001018B4174BC5
:102250001B68FC46019308BD00DFE92E0010944680
:10226000134A926F920809D2624618B40F4BDB688A
:10227000FC46019308BD0CDFA13100100C4AF0B5FB
:10228000146E556E576F166F6246FFF7EEFF084AE1
:102290001466556657671667F0BD18B4034B9B6804
:1022A000FC46019308BD08DF4530001020100020D7
:1022B000000000D0FFB550404240504059404B40D4
:1022C000594000E0FFB5154F4C00640D03D0BC42EF
:1022D00004D10C0314D80020090D09055C00640D1D
:1022E00003D0BC4204D11C030AD800221B0D1B05DD
:1022F00001264B4009D44B4003D58B4200D182428A
:10230000FFBD9942FCD19042FFBD0B43DB18034354
:102310001343F5D0C9434918FFBD0000FF07000073
:1023200000B5FFF7CFFF01D0002000BD012000BDA8
:1023300000B5FFF7C7FF01D9002000BD012000BD97
:1023400000B5FFF7B7FF01D9002000BD012000BD97
:1023500000B5FFF7AFFF804100BD0000002100285D
:1023600005D17047C1174840401AFAD0C90713B5C4
:10237000064B1B6898470CBC441CA2401005120B6E
:102380000349091B09051943114310BD347A002084
:102390001F04000010B54C00620D8023D218DB0032
:1023A000D21A5B057E2A10DD9E3A13DACC17090398
:1023B000490819435242D140640001341532202AA1
:1023C00005DAD0400843604310BD002010BD084628
:1023D000604310BDC80FC018013810BD18B4044BBD
:1023E000DB6FFC46019308BD7CDF51330010000019
:1023F0002010002018B4044BDB6CFC46019308BD90
:102400004CDFFD34001000002010002018B4044BF5
:102410001B6DFC46019308BD50DF9935001000008C
:1024200020100020132370B51D78012D15D010DD6C
:102430001C48FFF7AFFE1C4C01008022200001F079
:10244000B3FA022D06D01948FFF79CFE184B18600E
:1024500070BD154C174BA364F5E7164B124C236067
:102460006360A360E36023616361A361E36123624E
:102470006362A362E36223636363A363E36323642E
:102480006364A364E36423656365A365E36523660E
:102490006366A366E36623676367A367E367A36472
:1024A000D1E7C04653440000201000204C33000008
:1024B000347A0020AD2E0010F0B546464F46D64681
:1024C000C0B54E001D00730D99468B4B14004B4454
:1024D00098464B4688B0002B30D0884B99452DD07C
:1024E0004B460022864FFF1A3B0580185941FFF7E3
:1024F0008DFF844A844BFFF7B2FE0022834B060017
:102500000F00FFF725FF002826D14346002B31D0CE
:102510000022200029007E4BFFF712FF002832D155
:102520000022200029007B4BFFF702FF002835D056
:1025300043460020002B2ADB002129E0FFF766FF3D
:10254000704A714BFFF78BFE0022704B06000F00A4
:10255000FFF7FEFE0028DBD0300039006E4B002272
:10256000FFF76BFE6D4B06004B44984643460F0049
:10257000002BCDD122002B0030003900FFF78DFE5B
:1025800000F0ACFA04E043460020002BD4DB6449A1
:1025900008B0E0BCBA46B146A846F0BD200029000C
:1025A00000F04CFA0B000200290020000492059371
:1025B000FFF743FE1A220290039100F019FA00F08F
:1025C0003DFA0B000090019149000200490D0BD02B
:1025D0004A48814208D000201A2900DC81E0514994
:1025E000801859410090019104980599FFF7D2FE97
:1025F00082464046FFF7B6FE009A019B0490059183
:10260000FFF74BFE04000D0000F018FA0A0001006D
:10261000130006910792020029002000FFF70DFE2B
:10262000009A019B04000D0002980399FFF705FE34
:10263000049A059BFFF731FE22002B00FFF706FEF0
:10264000009001915046FFF78DFE32003B00FFF7EE
:1026500024FE04000D0000F0F1F90A00010013004F
:1026600004910592020029002000FFF7E6FD009A80
:10267000019BFFF7EBFD04000D0002980399320067
:102680003B00FFF70AFE22002B00FFF7DFFD00F002
:1026900025FA4E0004000D00760D00D178E7174BA7
:1026A0009E4200D174E706980799534647465F4318
:1026B000FFF770FEC71904980599FFF76BFEC01964
:1026C0008319002B09DD184A93420DDD144AEB0FE4
:1026D000DB071A43002011005AE7EB0F0020D9074F
:1026E00056E7DB0FD9077DE70022030512196B417E
:1026F000100019004CE7C04601FCFFFFFF07000077
:10270000FF030000EF39FAFE422EE63F0000E03FF3
:102710000000B0400000B0C00000F03F02FCFFFF2E
:102720000000F07F000060FEFE070000F8B54E4696
:102730004546DE4657460400E0B50D001600012A66
:102740005FD0D70FBF187F10012F50D00323D217AF
:1027500013409B199B109846012B3ED00723134032
:102760009B19DB109946012B30D00F2313409B1986
:102770001B119A46012B1ED01F2313409B195B117E
:102780009B46012B0CD03F231A4092199211FFF760
:10279000CDFF0B000200FFF780FD5B46DB073BD45B
:1027A0000B000200FFF779FD5346DB0703D522003B
:1027B0002B00FFF772FD0B000200FFF76EFD4B468A
:1027C000DB0703D522002B00FFF767FD0B0002009B
:1027D000FFF763FD4346DB0719D40B000200FFF748
:1027E0005CFDFB0703D522002B00FFF756FD0B0015
:1027F0000200FFF752FDF30703D522002B00FFF77D
:102800004CFDF0BCBB46B246A946A046F8BD22002E
:102810002B00FFF742FDE0E722002B00FFF73DFD14
:10282000BEE7C046F0B54F464646D6469146C0B5CF
:10283000984606000F0004000D1E46DA5A00654B4C
:1028400020219C463423520D62449B1A49425E1853
:1028500000D5A1E01F31B1400120404298404F46D1
:102860008743380047468F43002E00DA8CE041460C
:10287000F14001263140002A1EDB002B4EDB38439D
:102880005BD1002907D008E0802221001206AA1897
:102890000C00151E17DA342BF6D180263606434677
:1028A00020004A46A919FFF7BDFF8B191900E0BCAB
:1028B000BA46B146A846F0BD802322001B06EB189D
:1028C00014001D1EF8DB26002F0048464146FFF786
:1028D00061FD6B00824602005B0D3DD03E498B429C
:1028E0003AD02903090B0C4336D13C4A904268DBAD
:1028F00080221201904262DA364A94466344584379
:10290000374BC318002B5EDD364A93425EDC03056D
:1029100000220020344980185941C8E78023220052
:102920001B06EB1814001D1ECDDA802322001B06A7
:10293000EB1814001D1EF1DBC5E7802322001B06E7
:10294000EB1814001D1EBEDA802322001B06EB18B4
:1029500014001D1EF1DBB6E75346002B25D02033B3
:10296000402B25D85346002B09DA32003B000020CB
:102970001D49FFF774FC534606000F005A42300011
:102980003900FFF7D3FE92E720214646C91A8E4050
:102990004946D94031436CE70121202049420F00CC
:1029A000C01AC7409940394356E700200E497EE7D8
:1029B0004A46434630003900FFF77EFD77E7064878
:1029C0009AE7100094E70020002170E700200749F3
:1029D0006DE7C04601FCFFFFFF07000000F8FFFFA6
:1029E000FF030000FE0700000000F03F0000F07F42
:1029F0004B0070B55B0D04000D00002B0ED00C4E8B
:102A0000B3420BD0D318002B09DD0A498B420ADDF3
:102A1000094AEB0FDB071A430020110070BDCB0FF2
:102A20000020D907FAE70020110500196941F5E7F0
:102A3000FF070000FE0700000000F07F254A4B0062
:102A400094465B0D6344F0B504000D005A1C24DB72
:102A50005A1C38D03422D21A002A1DDD3322D31A50
:102A6000533A9A181DD401269640310001269E4003
:102A7000300024184D41002A1FDB02269640310009
:102A800002229A4010002600002342428B412C0073
:102A900016401C4030002100F0BDCB0F0020D907AC
:102AA000FAE720260127F61AF74001269E40390052
:102AB000300024184D41002ADFDA20220226D21AE3
:102AC000D6403100DCE7CB0F034ADB071A43002076
:102AD0001100E1E701FCFFFF0000F03F264B70B55D
:102AE0000A0D05000C009A423AD00022234BFFF752
:102AF0001FFC002834D1002228002100204BFFF7C2
:102B00001FFC002802D000201E4970BD28002100B3
:102B1000FFF794FFFFF73EFC0600FFF723FC0200DF
:102B20000B0028002100FFF788FB174B174AFFF71F
:102B3000B4FBFFF75FFC4B0004000D005B0DE4D01D
:102B4000134A9342E1D0F318002B0CDD114A934253
:102B50000DDDCB0F0B4ADB071A4300201100D4E731
:102B600000200021D1E7CB0F0020D907CDE70020BE
:102B7000310500196941C8E7FF0F00000000B0C02F
:102B80000000B0400000F07F422EE63FEF39FAFE31
:102B9000FF070000FE070000F0B5D6464F46464648
:102BA000C0B517001E000022B84B05000C00FFF74F
:102BB000B7FBAC46230000283CD1330D99465B059A
:102BC0005A0D9046002B3CD0002228002100B04B2B
:102BD000FFF7A6FB002838D0AE4B984531D0994579
:102BE00000D176E0AC4B994500D16CE04346AB4A4E
:102BF0009B1800D56DE0A6483422D31A9C46002BC2
:102C000010DD543A991800D5F8E01F328A400121AE
:102C10006346494299403B008B43310091430B434B
:102C200000D001E133003A0028002100FFF7FAFD4F
:102C300084460B0060461900E0BCBA46B146A8467F
:102C4000F0BD00239C46914BF4E7220D5305200074
:102C5000590D002B2AD14346904A002E3DDB9B188C
:102C600031D43421C91A2ED420235B425B189846F4
:102C700060D4012342465B429340012252428A4083
:102C800038009043020030009843030013431AD1E8
:102C9000AC4623003429CDD04346002B00DA9DE01A
:102CA000DE40F3070FD5AC462300C3E7794B9A46C5
:102CB0009A4248D100239C46002EBBDB784BB9E7F3
:102CC000784B994205DC00239C46B3E7754B99424B
:102CD000F9DC00239C46724BACE79B18F9D43422F4
:102CE000D31AF6D4543A98181BD41F3282400121CB
:102CF000494299403D008D432900350095432A0003
:102D00000A43E6D1342B04D000286FDBC640F3071A
:102D1000DFD500226249E40FE40721430B0094460B
:102D200088E70122202152421500C91ACD409A405D
:102D30002A43DCE7012320225B421800521AD040CC
:102D40008B40034399E7544B9A4262D14346534A1E
:102D5000002E20DB9B18BCD43422D31AB9D4543AA9
:102D6000981876D41F3282400121494299403C0094
:102D70008C4321003400944322000A43A9D1342B10
:102D800000D17FE0002875DBC64000239C46F30796
:102D900094D5454B4EE79B1895D43422D31A92D440
:102DA000543A98184CD41F3282400121494299402C
:102DB0003C008C4321003400944322000A4300D09D
:102DC00081E7342B05D000284CDBC640F30700D444
:102DD00079E700239C4680231B062BE720235B1A00
:102DE0009E4033003E00CE401E435AE72022D21AB6
:102DF000964032003E00DE40164388E70122202143
:102E00005242C91A1300CB40190063469A400A4344
:102E1000FDE6D14500D153E7994500D156E7434639
:102E20001E4A9B1800D4E7E6002800DA51E7330079
:102E30003A0028002100FFF73FFB84460B00F9E62B
:102E40000122202152421400C91ACC409A40224348
:102E5000ABE70122202152421400C91ACC409A400B
:102E6000224381E72022D21A964032003E00DE4003
:102E70001643ABE72022D21A964032003E00DE40D5
:102E8000164382E700239C46074BD3E60000F03F41
:102E90000000F0BFFF070000FF0F000001FCFFFF74
:102EA0000000F07FFE0300000000F0FF07B5604661
:102EB00001880A0A0230DF2AFAD1C9B2820804D393
:102EC000028840880004104300E00068014A505026
:102ED000039007BD201000200FB403BC0CBCF0B55C
:102EE0000124E407634000E0F0B50C0DCF0F661E2F
:102EF0003605891B640503D3C943404200D3013121
:102F0000640D03D0661CF60A07D0E41B00207F0086
:102F1000791C89078912803C24031D0DDF0F6E1E6A
:102F200036059B1B6D0503D3DB43524200D30133AF
:102F30006D0D03D06E1CF60A07D0ED1B00227F003A
:102F40007B1C9B079B12803D2D032F1B661B58D4B7
:102F5000A446202E46DA20371400BC401D00BD4098
:102F6000F24033412A4380185941CB0F05D0C94361
:102F7000C043002264425041514162464D0D28D168
:102F80000D0D07D100281FD0241940414941013AB5
:102F90000D0DF9D0640006D3013000D30131002CAF
:102FA00001D140084000013A0BD4941CE40A04D13A
:102FB00012051144DB071944F0BDD907204B194312
:102FC00000E0D9070020F0BD0029DDD1002CDBD1C5
:102FD000F0BD0132C6074008CD0728434908002E3E
:102FE000E1D0D9E73C2E29DA203E40371400BC401E
:102FF00000D00124F24014431A00BB401C43D317F5
:10300000ACE7AC46202F08DA20360400B4400D00AF
:10301000B540F84039412843A5E73C2F0CDA203F62
:1030200040360400B44000D00124F84004430800B6
:10303000B1400C43C117EAE710001900002494E7DF
:103040000000F07FF0B50C0D661E3605891BE60A00
:103050006405640D02D0651CED0A04D00020012136
:103060000905803C2403A4461C0D671E3F05DB1B9D
:10307000E70A6405640D02D0651CED0A04D0002245
:1030800001231B05803C24037740644497B484B239
:1030900096B27443070C7E43150C6F4380B26843AD
:1030A000361802D3012000043F183004350C0019F3
:1030B0007D41844688B29AB250430C0C62431F0C87
:1030C0007C438EB27E43921902D301263604A419A2
:1030D0001604170C3618674101BC81B29AB25143ED
:1030E000040C62431B0C5C4380B25843121802D399
:1030F0000120000424181004130C401863412D18FB
:103100005E410020474106BC88B293B258430C0C84
:103110006343120C544389B251435B1802D301211B
:103120000904641819041A0C091862416D185641F3
:103130000020474118BCF902720D1143F0026A0DDC
:103140001043ED020A0D03D16D1940414941013B85
:10315000124E9B1B7600B3420ED26D0007D3013096
:10316000002671416646354301D1400840001B05E9
:10317000C918E4072144F0BD0BDA013306D1013050
:1031800004D101314F0D01D04908F2E7E1070020D9
:10319000F0BD013631050020EBE70000FF03000021
:1031A000F0B51C0D671E3F05DB1BE70A6405640DC7
:1031B00002D0661CF60A04D0002201231B05803CC5
:1031C0002403D0252D060026F6432E661E096E66C2
:1031D000CE0FF619B44649004F0D02D07E1CF60AF8
:1031E00003D000200021403F3F033E1BB600B44403
:1031F000013F7F05C91B49082E6F013676089C02E6
:10320000950D25437543ED137543AD1301356D10D1
:10321000F603761B0CB4CC02450D2C43A2B2B3B21C
:103220005A43270C7B43350C6F43A4B26C431B19E4
:1032300002D3012424043F191C041D0CA4187D4151
:1032400024196D41009A91B2ACB26143170C7C43D2
:103250002B0C5F4392B25A43A41802D301221204EA
:10326000BF182204230C52187B41019C6C431B198C
:10327000520ED9010A434401A01A81B2B2B251439D
:1032800003145A43360C734387B27743D617D219C7
:1032900000277E4136049B191704160C7F185E41E7
:1032A0007316ED18F301002680337541A90F06D17E
:1032B0006400690AE8055B0A184309D22FE004227A
:1032C000944480337541A90AA8059B0A184326D364
:1032D000404149412404009A019B0D005543641B61
:1032E0004343E41A95B286B27543170C7E43030C30
:1032F0005F4392B25A43B61802D301221204BF1898
:103300003204330C52197B4152429C41002C02D4AE
:103310000022013051414008CA071043490802B059
:103320006246D7079210084BD218084B9A4203D234
:1033300012058918C919F0BD0020002A01DC3900E6
:10334000F0BD01331905F5E7FD030000FE0700009D
:103350004A00520D144BD21A13DDFF2A1EDAD20591
:10336000CB0FDB071A43C300400F0903490A084388
:1033700010435B0001D301D0013070474308FBD2FA
:10338000704702D0C80FC00770470A0312130132FA
:10339000F8D1420F072AF5D1012200E0FF22C80F21
:1033A00000028018C00570478003000000210A0059
:1033B000002104E000210A00C11704E000220023DC
:1033C00006E0C0460022CB1758405940C01A994128
:1033D00030B5184CA21A002903D1010010D00020EA
:1033E000203A4C1512D104D2013A001849414C0D33
:1033F000FAD3114CA24204D212058918DB07C9186E
:1034000030BDD243520D00200021F5E703D4013A2C
:1034100000184941FBD50B324405C00A4D0528432D
:10342000C90A640003D0002460416141E1E7E0D3B0
:103430004408F8E732040000FE0700000A0DCC0F34
:10344000531E1B05C91A520503D3C943404200D37A
:103450000131520D03D0531CDB0A07D0121B002090
:103460006400611C89078912803A1203014BD21A49
:1034700070470000FF030000023225D40C2A1CDA3A
:103480001125AD1A0B002B41083207350600EE401E
:10349000904091403143F0CC63431A1500235A41C8
:1034A000554356435743BF02F412760576196741D8
:1034B000ED177F19801BB94170470C220020C917F6
:1034C000490001310905DBE70902030E1943000237
:1034D0005342203208D40C0019419440D840204374
:1034E00000225041514170470800C917203B20324B
:1034F000F1D500200021002270470000F0B5FFF751
:103500009DFF54A4FFF7B8FF002904DA204C214D99
:1035100000196941013A04B4012752A6002201238F
:103520009B0730CEB446001BA9410BD47E42203607
:103530001D003D411C00B4401600FE403443624172
:103540006B4101E00019694166460137212FE8D13E
:1035500085B29EB2754307147E43190C4F4384B263
:103560004C43F11736190024614109047F183404D3
:10357000310C64197941A40F880020438917801801
:10358000594104BC52423E32FFF71DFFF0BD00001E
:103590006BDE73F4FD855C2CF0B54F0050D27F15C7
:1035A0004ED001374FD0FFF749FF04B44902C20D96
:1035B0001143400201272BA6B446002200237E427D
:1035C00020360D003D410C00B4400600FE4034435F
:1035D00044414D41AE0F05D120002900664630CE52
:1035E000121BAB410824A4440137212FE7D18900E5
:1035F000891012184B4180BC17A413CC01377843B3
:1036000079437C434F05C912CD17C0196941A70200
:10361000A415CD17C9196C41DD17801859416C41AB
:103620003E22CD17AC4208D000090E0730430909ED
:10363000260731432411043AF3E7FFF7C4FEF0BD37
:1036400002490020F0BD02490020F0BD0000F0FF5B
:103650000000F07FAAB800006BDE1300A3EF0F009C
:1036600021170B00F34B98BFEC23F319D6104DCD67
:10367000E3FB470E7AB9BC8ADBC18907CC542C0224
:103680001846E103053083E7B029F8011E1FE087E3
:103690004505FE00249E41ACA9807F00811762454C
:1036A00015E03F00E610ABA902F81F008858455509
:1036B00000FE0F00C4AAA90A80FF07005645550165
:1036C000E0FF0300ABA92A00F8FF01004555050003
:1036D000FEFF0000AAAA0080FF7F0000551500E051
:1036E000FF3F0000AB0200F8FF1F0000550000FE86
:1036F000FF0F00000B0080FFFF0700000100E0FF4C
:10370000FF0300000000F8FFFF0100000000FEFFC3
:10371000FF0000000080FFFF7F00000000E0FFFFCF
:103720003F00000000F8FFFF1F00000000FEFFFF49
:103730000F00000080FFFFFF07000000E0FFFFFF19
:1037400003000000F8FFFFFF01000000FEFFFFFF85
:1037500000000000000000800000000000000040A9
:103760000000000051434343C9188C46110C83B23A
:103770004B4310B4040C614392B280B25043624395
:103780001C041B0C001910BC59411304120CC01866
:1037900051416144704700004840414048400E4B51
:1037A0005B6818470C4B1B6818470C4A936F9B08C3
:1037B00002D2094BDB681847F0B5146E556E576F8F
:1037C000166FFFF7F6FF054A1466556657671667CA
:1037D000F0BD014B9B68184720110020000000D06D
:1037E000491A002808D1084670470000C10FC907D0
:1037F00000D54042002817D0F44603B40B4B1B6899
:10380000984706BC81409E384042803107D20B0663
:1038100007D04900490AC0051043084360470130FA
:10382000F8E7490A8902F5E770470000347A00207A
:1038300041000A0E80231B067E2A0BDD9E3A0BDA1E
:10384000C1174002400818435242D040490001319C
:103850004843704700207047C00FC01801387047B8
:10386000C0420DD300B540004008002100F012F81E
:10387000002801D4404200BD8020000600BD0000A9
:10388000034BDB69FC4618471CDF4539001000007C
:1038900020110020014B5B6A184700002011002016
:1038A000034BDB6FFC4618477CDF5D3900100000DE
:1038B00020110020132310B512481C78FEF76AFC73
:1038C0000100012C0AD003DD80220F4800F06CF8C3
:1038D0000E48FEF757FC0E4B186010BD0A4C5422E0
:1038E000200000F061F80B4B6365A365E365236678
:1038F0006366A366E36623676367A367E367236280
:10390000E361E5E753460000201100204C3300003E
:10391000347A00201939001007B5604601880A0A78
:103920000230DF2AFAD1C9B2820804D30288408863
:103930000004104300E00068014A5050039007BDA6
:10394000201100200021C2158032803201D0024AAD
:103950001047002070470000CD2A0000C30FDB078E
:1039600041000A0E07D0FF2A08D00909054A891824
:103970001943400770471900002070470249C918D1
:10398000FAE70000000000380000F07F0148042141
:10399000014B1847A00E0020A5210010014B1B6809
:1039A00018470000A00E0020014B5B68184700007C
:1039B000A00E0020030010B5080011001B689847F6
:1039C00010BDC046F0B546464F46D646C0B5437D0D
:1039D00080460E001700002B46D0002A3FDD4B1E0C
:1039E0009946244B0125002400209A460DE04B46C1
:1039F0001B5D0D3B5A425341325DDBB20A2A0BD0AC
:103A00002B00013401359F421ADD002CEFD14346D3
:103A1000325D1B7D0A2AF3D1002BF1D1A04204DADA
:103A20004346211A1B6830189847434650461B6886
:103A300002219847013428002B0001359F42E4DC25
:103A4000874204DD4346391A1B6830189847F61937
:103A5000013E33780D3B5A42534142461375E0BC58
:103A6000BA46B146A846F0BD036811003000984739
:103A7000F5E7C046CC640010F0B5DE4657464E462A
:103A80004546E0B585B017001C0006000D00FDF7A7
:103A9000CFFD0023304A12184B41002B58DB2F4931
:103AA00008008A4602F06CFC01906B1C03D13000C8
:103AB00002F0F4FB0500002C25D1294B9846294B38
:103AC0001C68002C15D0002F20D1274F02E024695C
:103AD000002C0ED02368002BF9D03B68002B01D0BE
:103AE000A342F4D120002A003100C0472469002CF1
:103AF000F0D1019B002B27D105B0F0BCBB46B246EC
:103B0000A946A046F0BD194B9846D8E7164B9946F2
:103B100002ABDF1D0A239B4602E02469002CE8D09B
:103B20002368002BF9D04B461B68002B01D0A34221
:103B3000F3D12A0031002000C0475B460122390042
:103B400020003B70C047E8E7504602F0E1FBD3E7B6
:103B50000122074B5242A2E740420F00F80E00201C
:103B6000C5390010B4560020BC560020B5390010ED
:103B7000FFFFFF7FF0B5CE46474680B583B06B466A
:103B80000600DD1D2870FDF753FD00231A4A1218A8
:103B90004B41002B2BDB19490800884602F0F0FB53
:103BA000174B81461C68002C14D0164F02E0246984
:103BB000002C0FD02368002BF9D03B68002B01D0DC
:103BC000A342F4D1200001222900FFF7FBFE246963
:103BD000002CEFD14B46002B05D1300003B0C0BC08
:103BE000B946B046F0BD404602F092FBF5E701222F
:103BF000054B5242CFE7C04640420F00F80E00206E
:103C0000B4560020BC560020FFFFFF7F70B50400B3
:103C100002F044FB00230100050001222000FFF711
:103C20002BFF084B1C68002C06D06368002B05D0C6
:103C300098472469002CF8D1280070BD2469002C15
:103C4000F3D1F9E7B45600200A4A1368002B05D1D6
:103C50000CE01A001B691032002B07D09842F8D1F3
:103C6000002902D103691360016170470029FCD06B
:103C70001060FAE7B456002010B500F0D9F910BD75
:103C80007047C0460022014B1A707047707A0020BE
:103C90004B790020FF2B0BD18B79002B08D1CB79EE
:103CA000012B05D1082A03D98A78024B09301A70F2
:103CB0007047C046707A00200120704770B5012916
:103CC00009D115495379107909781B020343002063
:103CD000994202D070BD0120FCE75378012B08D037
:103CE000022BF7D1002064220021FEF727F90120E2
:103CF000F0E79478D278050012021443D20502D579
:103D0000620A93401D000548FEF73CFA7F2103003C
:103D1000214028009847C046707A00205542000094
:103D20000123037000487047D064001048780B7876
:103D30008A7800021843120410439622CB7810B5FB
:103D40001B060343D200934200D010BD0348FEF788
:103D500019FA0021030008009847C04655420000A8
:103D6000024B1860024B19607047C046185600207D
:103D70001C56002010B5024B1878FCF79BFD10BDB7
:103D8000717A0020114B70B51A68002A1AD0EFF32F
:103D9000108172B610680028FCD0BFF35F8F00223C
:103DA0000B48596002701B68BFF35F8F1A6081F384
:103DB000108800240025074B1878FCF77BFD2900AC
:103DC000200070BDFA240025A400F4E7CC5A00209E
:103DD000727A0020717A002070B5040000200E0075
:103DE00001F002FB002835D0002001F015FB00286F
:103DF00030D0FDF71DFC0023184A12184B41002B50
:103E000024DB174D280002F0BBFA002822D0002046
:103E100001F0EAFA00280BD10120002103244042DE
:103E200000F0CCFC6442280002F072FA200070BD61
:103E3000002001F0F1FA0028EED02100320000202D
:103E400001F0F6FA041EEED1033CECE70122054B2B
:103E50005242D6E703246442E8E7C04640420F00DE
:103E6000407A0020FFFFFF7FF8B5DE46574680B559
:103E700005000C00FDF7DCFB0023364A12184B410D
:103E8000002B5ADB344908008A4602F079FA0028F0
:103E900003D1C0BCBB46B246F8BD002001F0A4FA75
:103EA00000284ED00026002C43DD2C4B9B4614E00E
:103EB000A919002001F030FB070001200021404239
:103EC00000F07CFC002001F0EBFAFDF7B1FB234B86
:103ED000F61918605960B4422BDD002001F036FB62
:103EE000A71B0200B84200DD3A00002AE0D1012001
:103EF0000021404200F062FC002001F0D1FA0020D5
:103F000001F072FA002814D0002001F01FFB0028F5
:103F1000E1D1FDF78DFB5B460F001A685B6800215D
:103F200084460F4812184B419F4202D8D3D1944582
:103F3000D1D9504602F0ECF9ABE70122094B5242CD
:103F4000A0E700200021054B18605960504602F0A0
:103F5000DFF99EE740420F00407A00201810002051
:103F600020A10700FFFFFF7F10B5244C84B0002183
:103F7000200002F0EDF900281CD1214B1A68002A1C
:103F800016D0EFF3108172B610680028FCD0BFF392
:103F90005F8F01241B48596002781B68D2B20470FD
:103FA000BFF35F8F0020186081F31088002A0AD0C9
:103FB00004B010BD01200021404200F0FFFB2000B2
:103FC00002F0A6F9F4E7FDF713F90400FDF730FB62
:103FD000FA220023920012184B41002B09DB012129
:103FE000029100210191084920000091FDF704F998
:103FF000DEE70122054B5242F1E7C046407A00203D
:10400000CC5A0020727A0020853D0010FFFFFF7F10
:10401000054B10B51868002804D0044B002219681D
:1040200001F044F810BDC046185600201C56002070
:10403000D02310B51B0684B01C68FDF7D9F8FDF736
:10404000D3F9A04202D0002004B010BD264B1B784B
:1040500001F066FC2548FCF7D1FE0120FCF7B2FE1A
:10406000FF23234C234920701840FCF749FC20789B
:104070000121FCF701FC0520FCF724FC002822D1DB
:10408000FDF7B6F80400FDF7D3FAFA2200239200F8
:1040900012184B41002B22DB0121029100210191DA
:1040A000154920000091FDF7A7F80822040000211F
:1040B0001248FFF773FC002CC5DB11480121FFF704
:1040C000C3FD0120C0E700220E490520FCF742FC99
:1040D000FCF7B6FB01000948FCF7BCFEEDE7012246
:1040E000094B5242D8E7C04614670010407A0020BE
:1040F000717A0020693F0010853D0010CC5A0020E5
:10410000B00E0020753D0010FFFFFF7F0048704794
:1041100088650010004870473465001070B50400D1
:1041200017480378002B21D0002C06D1C124154854
:10413000154BA4004380048070BD052C1DD8134B83
:104140001048A400E558811C002304E001330A80D4
:104150000231132B0ED0EA5CDCB2002AF6D1C02368
:104160000134E4B264009B001C43E4E7112100F039
:1041700017F8D9E7CA24A400DDE70020DCE7C04631
:10418000587A00208C560020090400009C6500101D
:1041900010B5024800F0D8F810BDC0462C7A0020B7
:1041A00030B54B1E012900D1A7E0664A11780D11E8
:1041B0002C0030349F2900D9A2E00470012B00D1DB
:1041C000BEE00F21147821400C003034092900DDB5
:1041D00098E04470022B00D1B2E0547825112900F8
:1041E00030319F2C00D990E08170032B00D1A7E0E3
:1041F0000F2121400C003034092900DD87E0C47014
:10420000042B00D19CE094782511290030319F2C9B
:1042100000D97FE00171052B00D191E00F212140F1
:104220000C003034092900DD76E04471062B00D102
:1042300086E0D4782511290030319F2C00D96EE01A
:104240008171072B00D17BE00F2121400C0030341D
:10425000092966DCC471082B00D171E0147925119D
:10426000290030319F2C5FD80172092B68D00F21B3
:1042700021400C003034092958DC44720A2B5FD0ED
:1042800054792511290030319F2C52D881720B2B83
:1042900056D00F2121400C00303409294BDCC47268
:1042A0000C2B4DD094792511290030319F2C00D949
:1042B000073101730D2B43D00F2121400C00303406
:1042C000092901DD37310C0044730E2B38D0D17928
:1042D0000C11220030329F2900D9073282730F2B34
:1042E0002ED00F220A4011003731092A01DC30326A
:1042F0001100C173102B23D010300023037030BD88
:1043000007345AE737310C0063E707316CE7373180
:104310000C0074E707317DE737310C0085E7073182
:104320008EE737310C0095E707319DE737310C00F8
:10433000A3E70731AAE737310C00C4720C2BB1D1C7
:10434000C018DAE72C7A002030B5002589B00400C7
:104350000922002101A80095FFF720FB0922002176
:1043600005A80495FFF71AFB4B236A4668461370AD
:1043700004A90D2201F0C4FF152108222000694480
:10438000FFF712FB09B030BD10B501210520FCF785
:1043900073FA10BD10B500220021024800F05AF94E
:1043A00010BDC046E05600208022024B5202DA6463
:1043B0007047C04600201150F0B5C64600B5060053
:1043C00000F022F90C231B4DFF22AB6705201A4990
:1043D000FCF7C0FA40239846184C402200212000E8
:1043E000FFF7DCFA43460127238321210023144AE7
:1043F0006770A260136063545F3161844146218716
:10440000053963540F4A10496360E260A1620B6092
:104410006362E26201F084FF80239B052F64EB64FA
:1044200090230A4A3000EA50FFF7BEFF80BCB8462E
:10443000F0BDC04600001150F9040020C056002015
:1044400084001050000110508000105010D0010066
:104450000B785B0602D14B78052B00D070478A7829
:10446000014B1A60FAE7C04600001150F0B5C6468D
:1044700000B54B790C791B0288782343CC787F21D7
:10448000A4070140C509A20F4F001400324E7A194B
:104490005201B218907001206840507000205B05F6
:1044A0005B0DD0701383D4768046CA00012D33D0C3
:1044B0002A488446880162448446B4446046826047
:1044C00040461060002933D0254AC9009046624614
:1044D000414451603F223F339343022C00D15B00A3
:1044E00020487A1901685201B218D1601E4ACB18CF
:1044F000036051405340802288465201934228D89D
:104500004346A4061C4380237F197F011B06F6192E
:104510001C4373681C6011E014488446880162449F
:104520008446B4446046826240461060002909D146
:1045300000236D01761973600D4BF360012080BC80
:10454000B846F0BD084AC9009046624641445162EF
:10455000C0E7FDF7E9FDD3E7C05600208400105006
:1045600004001050C85A0020000010508000105065
:104570000001105010B501F0D3FE10BD10B57F2022
:104580000C0020404000E409110000191A00034B00
:104590004001C01800F05EF8012010BDC056002098
:1045A0007F22130010B50B400A420BD0C9098022AC
:1045B000580040180649400140181201002101F03E
:1045C000F7FE10BD02220348C909521A8266EEE7BF
:1045D000C0560020002011507F22100010B5084066
:1045E0000A4200D110BD0023C90940004018044907
:1045F0004001081800220349C37001F0D9FEF1E719
:10460000C0560020FFF7FFFF80220D4B520410B56B
:104610001A600C4B0C491A6010008B689843FBD150
:104620000A4C9C2200212000FFF7B8F980220021CB
:1046300052010748FFF7B2F90923636710BDC0466E
:1046400000E0004000F0004000C0004000001150B9
:104650000000105070B5837E04000D001600002B82
:1046600017D10023E38201332000A682A3762561BF
:1046700001F07EFE002804D080219023084A8902A0
:10468000D150200001F054FE002805D001232377EB
:1046900070BD01F085FEE4E7200001F079FEF7E748
:1046A00000201150024B5878431E9841C0B2704709
:1046B00064150020024B18784007C00F7047C046B1
:1046C00064150020034B1878FF38431E9841C0B290
:1046D0007047C046EC0E0020F8B5CE46474680B580
:1046E0002C4E050033780120FF2B03D0C0BCB94607
:1046F000B046F8BD532200212748FFF74FF9274C59
:104700002000FCF77BFB264B1C60264C200014305D
:10471000FCF790FB200001F0D1FB234B234F1C60E2
:10472000234B9846002B04D03800FFF7F9FA214BB1
:104730001860424600243B78002A23D01E4A904647
:104740001C4A9146A34212D80FD1434698470134E0
:104750003B78E4B2A342F5D228003570FFF72CFE77
:104760002800FFF711FE0120C0E70020BEE74A46FF
:104770001268630094461B19DB006344002BF4D0DD
:104780001B68E3E700F0EEFE3B780020002BADD184
:10479000E2E7C046EC0E0020641500201C15002046
:1047A000B8150020D00E0020BC150020697A00202A
:1047B000213D00103C12002065550010F0B5DE468A
:1047C00057464E464546E0B58BB001F0AFF800289D
:1047D00000D10FE1CD4BCE4D9946CE4B07AC9B4659
:1047E0002E687269EFF3108172B61368002BFCD04B
:1047F000BFF35F8FB1613000210001F0A1F9726950
:10480000B369BFF35F8F0021116083F31088002824
:1048100000D1EFE06378082BE2D84A469B00D358DA
:104820009F466368002BDBD0A0689847D8E77F22BB
:104830002179B84E0A405000CB093618F6183000DE
:1048400001273030C378BB43C370C3780337BB4301
:10485000C370002A00D1F2E0AF4AF37C002A06D0F0
:10486000AE4A1278934200D244E19B1ADBB2002B8D
:1048700000D0BFE0AA4E62792078A368B047AFE7C6
:104880005B4601221B78012113435A4613703323E0
:104890005846D25C5E468A43C254C25C04208243BE
:1048A000F2540133F25C8A43F254F25C8243F254D4
:1048B000237800209A4600F005FD602223791A40F3
:1048C000602A0DD0402A00D1BFE0DB06DB0E012BB1
:1048D00000D137E1022B00D1D4E0002B00D1C3E09E
:1048E00020780021FFF75CFE80212078FFF758FE3A
:1048F00076E7884E3378DB0700D471E7894B002BCD
:1049000000D16DE700E000BF6AE7824E3378DB0735
:1049100000D465E7844B002B00D161E730780007B5
:10492000C00F00E000BF5BE77C4B7B4A9846002647
:1049300027781B78002A00D179E07C4A92469E4273
:104940005FD319D17A4B38009847434601361B781C
:10495000F6B2B342F3D26F4E532200213000FFF77C
:104960001DF81022FF21F01CFFF718F8300020225C
:10497000FF211330FFF712F800F09AFC6D4B002B6B
:1049800000D12DE700E000BF2AE7644B624A984659
:10499000002627781B78002A1FD0644A92469E4240
:1049A0003AD321D1624B38009847434601361B78F1
:1049B000F6B2B342F3D2574E532200213000FEF735
:1049C000EDFF1022FF21F01CFEF7E8FF300020224F
:1049D000FF211330FEF7E2FF07E0380000F000FE91
:1049E00043461B78002BE6D04A4E00F061FC237949
:1049F000B370F5E60BB0F0BCBB46B246A946A04684
:104A0000F0BD52461268730094469B19DB00634464
:104A1000002BB1D05B6896E752461268730094464B
:104A20009B19DB006344002BDED05B68BBE73800DA
:104A300000F0D6FD43461B78002B9DD18BE76279B1
:104A40002078A36800F052FCCAE63B48002800D159
:104A500046E700F037FC0121504608AA00E000BFFD
:104A6000002800D0BCE63BE7202A00D19FE0002AC6
:104A700000D035E76379092B00D931E72F4A9B0035
:104A8000D3589F467023217A0B4200D028E758461E
:104A90000F330B405B00CE09C0181F4F8019C07C3C
:104AA000002F06D01D4F3F78B84200D2A1E0C01BB6
:104AB000C0B2002800D097E0002A00D048E1204F83
:104AC0000220627990468243012A00D143E14246A6
:104AD000002A00D004E75B449E193036F37806AA1A
:104AE0009B07DB0F023213805046022308A900F017
:104AF00081FB75E65A00D3180C4ADB001268D31804
:104B0000002B00D176E71E69B5E6C0461C66001092
:104B1000BC15002064150020213D0010697A00209A
:104B2000D957001000000000000000003C120020D7
:104B3000E155001000000000000000004066001079
:104B4000A8660010237A0F2B00D9C9E6AA4A5B4455
:104B5000DB78002A05D0A94A127893425ED39B1ACB
:104B6000DBB2002B00D0BBE6A548A64E00F0AAFBA6
:104B700001215046F36808AA9847002800D02FE684
:104B80006022160023791E401A4200D0A8E66379FD
:104B90000A3B012B00D9A3E600F094FB63790A2BB2
:104BA00000D120E1504608A900F00CFB18E6237A5A
:104BB0000F2B00D994E6904A5B44DB78002A06D09C
:104BC0008E4A1278934200D2E6E09B1ADBB2002BA9
:104BD00000D085E68A488B4E00F074FB01215046D8
:104BE000F36808AA98473BE70027002A00D167E747
:104BF00076E647003818844FC0003F683F18002A07
:104C000000D15DE7002F00D16AE6F86800F05AFB9A
:104C100001215046FB6808AA984721E77A4A5E00BE
:104C2000F3181668DB00F618002E00D158E6F0687D
:104C30009CE7A279019273789A4207D07378002B8F
:104C400000D045E1019B002B00D0E9E05B46019AD2
:104C5000504608A95A7000F0B5FAC1E5737806AA63
:104C6000023213705046012308A900F0C3FAB7E5D9
:104C7000E088030AC0B20F2B00D931E663499A00DD
:104C80008A58974608A800F023FB5046A179FFF701
:104C900081FB0222337813433370A1E5E388012BB3
:104CA00000D01DE60822337893435A46137079E703
:104CB0000220317806AB9A1C8B068908DB0F014075
:104CC0000B4310E7E388012B00D009E60822337874
:104CD0001343EAE74E4B002B00D101E600E000BF92
:104CE000021E00D1FCE5D37891781B020B4350469D
:104CF00008A900F07FFAB3E6464B002B00D1EFE5A0
:104D000000E000BF021E00D1EAE55046137808A972
:104D100000F070FAA4E62189FFF700FA021EF4D130
:104D2000DEE5022B00D111E13B4B002B00D1D7E592
:104D300000E000BF0200002A00D1D1E5D3E7FFF771
:104D4000E5F91223020008A9504600F053FA87E65D
:104D50002B482C4F5AE7E288002A08D142465B4490
:104D60009E193036F378012A21D09B072ED5002FCB
:104D700000D135E5F86800F0A5FAFB6808AA012122
:104D800050469847002000F09DFA34235A46D35CE1
:104D9000DB0700D524E505E71B4A5E00F31816681B
:104DA000DB00F618002E00D19AE5F06814E79B07A7
:104DB000DDD51A4B1878FFF70FFC0222F3789343E6
:104DC0004246F370F3789343F370D0E7134B1878AF
:104DD000FFF7E6FB0222F37813430122F370F37826
:104DE0001343F370C3E706AB9A1C5046012308A98E
:104DF000167000F0FFF9F3E4213D0010697A0020FD
:104E0000F5560010A86600103C12002068660010DD
:104E1000000000000000000000000000EC0E002078
:104E2000581EC0B2FFF776F9002800D158E5437844
:104E30000593022B00D053E50121C279070093119D
:104E400052110B400A4012015B0113435A4612787B
:104E50002F318A4313435A461370C37882781B025A
:104E60001343C31809370393039BBB4200D8ACE03C
:104E700001227B7800920B2B03D1FB7800933B78C7
:104E8000FF187B78042B00D02AE50026039B584AA4
:104E9000DB1B9BB20293574B04931B78B24263D047
:104EA000B846B34256D800D01AE5534B534F41464B
:104EB0005046029A9847082803D9029A824200D3A2
:104EC0008AE0049B01361B78F6B2B342E9D207E5CB
:104ED0005046FFF74FFBB378454A0093454B0026F9
:104EE00098461B78002A0DD0454FB34225D820D1D3
:104EF000444B50469847434601361B78F6B2B342BE
:104F0000F3D206E0504600F06BFB43461B78002BC3
:104F10000FD1532200215846FEF740FD5B46102278
:104F2000FF21D81CFEF73AFD2022FF213648FEF76C
:104F300035FD5B46009A9A7084E618233A687343FD
:104F400094466344002BF4D05B68D2E7FFF7E2F8A5
:104F50000200F0E62A4B1F6818237343FF18002F46
:104F600000D1BDE4BB68A2E7029B39001A0050469D
:104F7000984600F04BFB082800D8B1E44246824234
:104F800000D2ADE41D4B9846009B012B28D0002297
:104F90000AE0BB78D318DBB25B44D978FF2900D094
:104FA0009EE40132DE70D2B2009B9A42F1D180467B
:104FB000330002003900144800F03CFD049B4744D4
:104FC0001B78B34200D34FE78AE4104B002B00D18B
:104FD0003CE600E000BF39E63B0047469846D3E791
:104FE0004246054B92689A42D1D1059B0093CEE789
:104FF000213D0010697A00200D560010A8660010AF
:105000003C120020E1550010771500200000000040
:10501000F8B557464E46DE4645460C00E0B516004C
:105020001F00002A3CD0702398461E4B00259B464B
:105030001D4B9A461AE05B461B7820009946534662
:10504000997800F0BBFC00281CD021004846FFF7EF
:105050000DFA002816D0A378DA09012A19D00A9A85
:10506000013513702378E418B54219DA6378052BFB
:1050700008D1E3789B079B0FBB4203D14246A3783C
:105080001A42D8D00020F0BCBB46B246A946A04682
:10509000F8BD0B9A013513702378E418B542E5DBAF
:1050A0000120F0E7EC0E002064150020802310B5ED
:1050B0001B0184B001930E4B02901C68039162693E
:1050C000EFF3108372B611680029FCD0BFF35F8F35
:1050D000A361200001A900F0F9FD6269A369BFF393
:1050E0005F8F0021116083F3108804B010BDC046AB
:1050F000BC150020702270B58B780C001A4201D0CC
:10510000002070BD064B20001D78064B997800F0FA
:1051100055FC0028F4D021002800FFF7A7F9F0E79C
:10512000EC0E002064150020074B080019687F234F
:1051300010B50340C0095B0033301818034B181832
:1051400000F0F8FB10BDC046B81500206415002023
:10515000074B080019687F2310B50340C0095B00A6
:1051600033301818034B181800F00CFC10BDC04663
:10517000B8150020641500207F2070B508400F4C42
:105180004000CD09241864193034E5780020ED077B
:1051900000D570BD0126E578094835430078E570F3
:1051A000FFF7ECF90028F4D10122E3789343E37090
:1051B000E37803329343E370EBE7C04664150020C5
:1051C000EC0E002070B50A4E0500300008220C00DD
:1051D000FEF7EAFB00237F21F3602278B36091425F
:1051E0005B412800D90100220023FFF7C5FF70BDF5
:1051F00008150020F8B5CE46474691462A4E80B5A0
:105200000822070030000D009846FEF7CDFB4B4604
:10521000B3600023F381EC79A97924020C43231CA9
:10522000444500D943469AB29046B381002C13D02E
:10523000002A1FD04B46002B34D0131C402A1FD805
:105240009BB2984633787F2B20D80021174A4346DB
:105250003800FFF791FF09E07F222B7838009A424F
:10526000644100230022E101FFF786FFC0BCB9467C
:10527000B046F8BD33787F2B11D980210022E6E7B4
:1052800040239BB2984633787F2BDED9074C4246A9
:1052900049462000FEF788FB80212200D7E7002145
:1052A0000022D4E70020E1E70815002024150020A3
:1052B00010B5142200210248FEF770FB10BDC04655
:1052C00008150020014B18617047C04608150020E2
:1052D00010B5054C010008222000FEF765FB0023F5
:1052E000A360E36010BDC04608150020F8B53B4C34
:1052F0001D0023780600DA09C9098A4213D000206C
:10530000002D00D0F8BD364B002B03D0210030001B
:10531000FFF79EF82369002B44D0220003213000C0
:1053200098470120EEE77F2B06D8A068002837D0E9
:105330002A002C49FEF738FBA368E2895919521953
:10534000E38892B2E281A160934214D03F2D12D93A
:10535000A589A81A071C80B240282FD82378BFB28D
:105360007F2B2DD80021AA4235D01E4A3B003000A9
:10537000FFF702FFC6E72369002B05D022000221B8
:105380003000984700280FD07F220021237830007A
:105390009A42494100230022C901FFF7EDFEB1E71F
:1053A0000020AFE70120ADE700213000FFF7F8F85B
:1053B00030008021FFF7F4F80120A3E74027CDE774
:1053C000AA4207D0074C3A002000FEF7EDFA8021F0
:1053D0002200CBE780210022C8E7C0460815002044
:1053E000514400102415002010B50400FFF75AF9AD
:1053F000002801D1002010BDFFF75CF90028F9D189
:10540000B22080004443034800190379012018406A
:10541000F1E7C04640120020B2239B00584310B56C
:10542000024B1030C01800F057FB10BD4012002096
:10543000F0B5B225AD0045432C00C646174F1034D9
:10544000E41900B5200092B200F0CAFB060020006B
:1054500000F060FB3F2803D8300080BCB846F0BDA8
:105460007B190020D9789846FFF75EFE0028F3D01C
:10547000200000F04FFB3F280AD992239B00EA1836
:105480004346D219D97800204023FFF775FEE3E7A1
:1054900043460020D978FFF75BFEDDE7401200208D
:1054A000F8B50400FFF7FEF8002801D10020F8BD90
:1054B000FFF700F90028F9D1B2208000444325000D
:1054C000144E2435AD19280000F006FB0028EDD05D
:1054D00037190020B978FFF727FE0028E6D0A2236D
:1054E0009B009C466444A41921002800402200F03F
:1054F00077FBB978051E08D0030022000020FFF7D3
:105500003BFE0028D2D02800D1E70020FFF720FE84
:10551000CCE7C0464012002070B5B224A40044433A
:10552000094B2434E418050092B2200000F012FC6C
:105530000600200000F0D0FA3F2801D8300070BDEE
:105540002800FFF7ADFFF9E740120020B2239B00CF
:10555000584310B5024B2430C01800F0DBFA10BDE0
:1055600040120020B222F0B51B4C83B00021200075
:105570009200FEF713FAFF236371184B8026002573
:10558000E3800127082321002000760023733200E6
:10559000278138310095073B103000F065FA210073
:1055A000200039313200FF3101230097243000F010
:1055B0005BFA8E239B00E6183000FBF71FFC90235C
:1055C0009B002662E6183000E561FBF717FC2663B6
:1055D000656303B0F0BDC0464012002000C2FFFF6B
:1055E00010B5094C052200212000FEF7D7F9200054
:1055F0002434103000F062FC200000F05FFC012138
:10560000200000F07BFC10BD40120020F0B54B796B
:10561000060083B0022B02D18B79022B03D0002528
:10562000280003B0F0BD304FBB78002BF7D18B784A
:1056300009253B700C780C196378242B0BD1082AB0
:1056400002D80FE0AA420DD32378E418ED1863784E
:10565000ADB2242BF6D0052B21D0042B02D16379D7
:105660000A2B2FD0214C200000F054FA3F28D7D924
:105670002600103E0020F178FFF756FD0028CFD01D
:10568000200000F047FA3F2817D98E239B00E2182C
:10569000F93BF178FF3B0020FFF76EFDC0E72100EA
:1056A0003000FFF727FD0028B9D0A3787B7023785E
:1056B000ED18E4186378ADB2CFE7F1780020FFF77A
:1056C00047FDADE70A4B277801930133009302228F
:1056D00002233000E119FFF79BFC00289FD00E3514
:1056E000ED19ADB2BEE7C0464012002050120020B6
:1056F00042120020F8B56023140012780500134010
:105700000020202B12D12F4A6379277916781B02AB
:105710003B439E420AD16378222B27D007D8202B07
:1057200017D0212B02D101293DD00120F8BD232B18
:10573000FCD101293FD00329F7D1234B002BF4D012
:10574000E178A37809020020194300E000BF01209E
:10575000ECE7012927D00329E7D11C4B002BE4D02B
:105760000020911DFEF7E2FA0120DFE7012922D097
:105770000329DAD101252E00A378E4780239240226
:105780001C431471264024321000714000F0B6FB17
:105790000F4B002BC9D06208002031002A4000E0E6
:1057A00000BF0120C2E7072321002800094AFFF7B4
:1057B00021FD0120BAE721002800FFF703FD0120A9
:1057C000B4E7C04640120020000000002D3D00104C
:1057D0000000000046120020F8B557464E464546E8
:1057E000DE46E0B5494F8046FA780C001E008A423A
:1057F00064D19AB292239B00FD1810239B46BB44B0
:105800002900584600F0A6FA414BD946002B18D083
:105810007B79D946FF2B14D0002E12D0AA199246BC
:1058200003E0013555450CD07B792A789A42F8D1AE
:10583000484600F067F90028F3D1797900E000BF0D
:10584000EFE7344B002B04D0484600F05BF900280A
:1058500052D0484600F05EF93F2834D84A46103A04
:105860009378A34207D001242000F0BCBB46B24687
:10587000A946A046F8BD284B002B02D0002000E02E
:1058800000BF0020FFF70CFE0028ECD1234D2800BC
:1058900000F022F90028E6D1002EE4D0B306E2D1D0
:1058A000243D4046A978FFF73FFC041EDBD00023CF
:1058B00000224046A978FFF75FFCD5E7BB788B4212
:1058C000D9D00024D0E74D46103D0020E978FFF7FD
:1058D0002BFC002801D1AB78C3E7484600F01AF949
:1058E0003F280CD98E22920040230020E9784A44B8
:1058F000FFF742FCAB78B4E7FEF78AFBA9E700208C
:10590000E978FFF725FCAB78ABE7C04640120020F2
:105910000000000011400010000000006412002090
:1059200010B50020FEF7D8FE10BDC04610B5FEF73A
:10593000C9FE10BD037870B5DB0704000E00DD0F53
:10594000002B17D103785B0701D5280070BD01211A
:105950003000494200F004FD2378DB07DD0F002B07
:105960000AD123785B0708D4042223780125134346
:10597000237002E00025E8E70025300000F0C8FCB5
:10598000E3E7C04670B50D0001210400494228003C
:1059900000F0E6FC23785B07DE0F002B04DB280019
:1059A00000F0B6FC300070BD2378DB0704D404227D
:1059B000237893432370F2E70026F0E710B543798C
:1059C00004791B0223435B055A0DC3789B079B0F89
:1059D000022B05D0032B15D00020012B08D010BDC1
:1059E00002291CD00020402393424041C0B2F6E778
:1059F00002394B4259410D4B9C4661449142404112
:105A0000C0B2ECE702394B425941F0230020494231
:105A10009B001940403191424041C0B2DFE7044B46
:105A2000D3185A425341D8B2D9E7C046FF03000009
:105A300000FEFFFF8A1870B5914207D27F264C788E
:105A4000052C04D00C7809198A42F8D870BD3400AE
:105A50008D782C4064000419ED0963550C78091900
:105A60008A42ECD8F2E7C046F0B5C64600B504005D
:105A700006A805788020884617001E000002824292
:105A800027D8E068002803D00121494200F068FCD3
:105A90002069002803D00121494200F061FC4346FF
:105AA000236073045B0CED031D430023E0686381F6
:105AB000A780E5802381002801D000F029FC20691F
:105AC0000124002801D000F023FC200080BCB8464F
:105AD000F0BD0024F9E7C04610B5048941898288E9
