:020000041000EA
:1000000000B5324B212058609868022188439860DF
:10001000D860186158612E4B002199600221596106
:100020000121F02299502B49196001219960352056
:1000300000F044F80222904214D00621196600F024
:1000400034F8196E01211966002018661A6600F04E
:100050002CF8196E196E196E052000F02FF8012189
:100060000842F9D1002199601B49196000215960AB
:100070001A491B48016001219960EB211966A021F2
:10008000196600F012F800219960164914480160C1
:100090000121996001BC002800D000471248134993
:1000A000086003C880F30888084703B5996A0420EC
:1000B0000142FBD001200142F8D103BD02B5186610
:1000C0001866FFF7F2FF186E186E02BD00000240BE
:1000D000000000180000070000035F00212200005C
:1000E000F4000018222000A00001001008ED00E03C
:1000F00000000000000000000000000074B24E7A12
:1001000000200420F7010010C3010010C5010010F9
:10011000C1010010C1010010C1010010C101001097
:10012000C1010010C1010010C1010010C701001081
:10013000C1010010C1010010C9010010CB01001065
:10014000CD010010CD010010CD010010CD01001037
:10015000CD010010CD010010CD010010CD01001027
:10016000CD010010CD010010CD010010CD01001017
:10017000CD010010CD010010CD010010CD01001007
:10018000CD010010CD010010CD010010CD010010F7
:10019000CD010010CD010010CD010010CD010010E7
:1001A000CD010010CD010010CD010010CD010010D7
:1001B000CD010010CD010010CD010010CD010010C7
:1001C00000BE00BE00BE00BE00BE00BEEFF3058054
:1001D000103800BEF2EB887194290010B829001085
:1001E0003402001090A31AE700201F49086006C8D7
:1001F00081F3088810471D48006800282FD10DA4FE
:100200000ECC002902D000F012F8F9E71849194A7B
:10021000002000E001C19142FCD1174988471749ED
:1002200088471749884700BEFDE701C901C29A42C5
:10023000FBD37047B8290010C00000206C020020DA
:10024000642B00100000042000000420642B001028
:10025000001004200010042000000000704709482E
:1002600001F018FD0047000008ED00E0000000D09C
:10027000700200209C2500200D1B0010450300107B
:10028000011C00105756000006005250ABB36053DB
:10029000C828001006005250861C0302D8280010FF
:1002A000060052505422A29DE8280010050052502A
:1002B000DE65F468642B0010F8B5C04610B5064C36
:1002C0002378002B07D1054B002B02D0044800E017
:1002D00000BF0123237010BD700500200000000046
:1002E00058280010044B10B5002B03D003490448D4
:1002F00000E000BF10BDC0460000000074050020F3
:10030000582800100C4BF0B51A680C4B01211D68E1
:100310000B4F2B0010339940FA23380004355B0152
:10032000FE18AD00046853681942FCD10430AC508B
:10033000B042F7D13800F5E7200600203C06002047
:1003400050060020F0B5CE46474680B58DB001F08E
:10035000A1FF02F01BFA1F211A2000F0D1F80022A1
:1003600000211A2000F0E4F800211A2000F0F8F82B
:10037000E022FA21384BD2011B6838481340384A32
:10038000C9001360FF2200F07FF8364C3648374929
:10039000206002F089F801218046206802F066F8AA
:1003A000334B8022186000230793F82352025B022C
:1003B00004920593C02310221B0304A9060008A879
:1003C0002768069301F0FEFD434642460533D201FD
:1003D0001B03134308A9102204A8099301F0F2FD9E
:1003E000244B00240693244BFD186B1E9D410635BB
:1003F00020002900013400F083F8082CF8D1802572
:100400001E49730089469B19DB00FB18DC331A6810
:100410002D040A402A43073C1A60310008230022B9
:100420003800009402F0A4F8079BB44003934B46B5
:10043000039A380013401D43114B42460493310088
:1004400004AB079502F0ECF83B680E481C433C6097
:1004500002F076F9FEE7C04600C0044050060020D6
:1004600000D0044020060020000020505828001032
:100470003C06002000000C300000E0AFE0FF0FFC65
:100480000069AB1205030010F8B54746CE4680461A
:1004900080B54D081700002D2ED0100001F0D6FCBD
:1004A000041C280001F0D2FC011C201C01F0B3FC4C
:1004B0000024061CA3009946200001F0CDFC311C4D
:1004C00001F0BDFC01F0EAFC43464A460134985075
:1004D000AC42EFD10024A8008044200001F0BCFC15
:1004E000311C01F0ACFC01F0D9FC4346381A01C3C1
:1004F00001349846AC42F0D1C0BCB946B046F8BD14
:10050000094A830094464022634410B51C68C00029
:100510006240C02414408022520113431C60034BEC
:100520009C466044416010BD04C001400040014051
:100530000A4B80009C4604236044002901D00C2310
:100540000821002A00D10B00026853400C221A40F7
:1005500080235B01184302607047C04604C001401D
:10056000084B80009C466044002905D080239B01F5
:100570001843402303607047C0239B011843402366
:100580000360F8E704C00140024B18688007C00F01
:100590007047C04600C00640EFF3108072B6034AB1
:1005A0001368002BFCD0BFF35F8F70472C0100D085
:1005B000BFF35F8F0022024B1A6080F310887047F0
:1005C0002C0100D070B5EFF3108C72B60D4D2B6876
:1005D000002BFCD0BFF35F8F0724CB08C618C05C8C
:1005E00001230C40A3401C000440034207D10343F5
:1005F0003370BFF35F8F2C608CF3108870BD1000D8
:1006000001F002FB2C0100D0F8B54746CE468846E3
:1006100080B5EFF3108C72B6214D2C68002CFCD005
:10062000BFF35F8F9A422CD8D4080727055D0619BF
:1006300001241740BC402C421FD0072101278946C6
:1006400009E0D408055D06194C4639001440A14064
:100650000C00294211D001329342F2D201204042D3
:10066000BFF35F8F00220E4B1A608CF310880028B6
:100670000FDBC0BCB946B046F8BD2C431000347047
:10068000EEE7BFF35F8F00232B608CF3108801200F
:1006900040424346002BECD0089801F0B5FAC04622
:1006A0002C0100D00021044B044ABFF35F8F02C32A
:1006B0009342FAD17047C046000100D0800100D0BB
:1006C000044A1078431CDBB2172B00D91023137097
:1006D0007047C0469801002001238340002904D0C0
:1006E000034A1360034A13607047034A1360FBE731
:1006F00080E200E000E100E080E100E001228240D1
:10070000034B1B6813405A1E9341D8B27047C04632
:1007100000E100E0024B10309B688000C058704739
:1007200000ED00E070B50D00EFF3108672B60F4AD1
:100730001368002BFCD0BFF35F8F0D4B10309B680C
:1007400084001B590B4A934203D09D4201D001F013
:1007500073FA074B9B681D51BFF35F8FBFF35F8F29
:100760000022024B1A6086F3108870BD240100D06D
:1007700000ED00E0CD010010F0B5DE4657464E46D4
:100780004546E0B50C0083B0EFF3108972B6584AC5
:100790001368002BFCD0BFF35F8F564B9A680300A1
:1007A00010339F00D559544A9046954232D0A54205
:1007B00043D0524EAA1B2F2A2CD8012282409246A7
:1007C00051464F4A12681140019151464D4A1160FD
:1007D000BFF35F8FEFF305829346002A33D10123E5
:1007E0002A009A4393689C4208D177E04B005B183B
:1007F0009B00F3189968A1422AD01A00062151568D
:100800000029F3DA019B002B19D052463E4B1A60A7
:100810003B4B1A60374B9B68DD51BFF35F8FBFF3D3
:100820005F8F0022324B1A6089F3108803B0F0BC4E
:10083000BB46B246A946A046F0BD1500EAE75246BF
:10084000304B1A60E6E79342C9D001F0F5F9C6E7EC
:1008500006215956002921DB4A005018800034181F
:100860008046A0689860E079D8710620205698717B
:10087000002824DBA488F01A6405241544440019D8
:10088000E0240005400D24022043988052181F4B9D
:100890009200B6181A781970B271B3E75946002958
:1008A0000FD1FF3191711A49918018490A789A71D4
:1008B000184A9B1B5B415A43120D0A70A2E7164867
:1008C000E3E7164A1649D21A083A5002400D01438E
:1008D0009980144952080A43DA8093E70621515659
:1008E00013000029B8DA5A46002AEAD14546DCE767
:1008F000240100D000ED00E0CD0100109C0100209B
:1009000000E100E080E100E080E200E09A250020C4
:1009100001BDFFFFAAAA000001BD0000D601002012
:1009200000F0FFFF00F8FFFF70B5EFF30581012431
:100930000443EFF3108C72B6214A1368002BFCD0ED
:10094000BFF35F8F1F4B05001F4AED1A6D416A43CD
:10095000120D1E4D8900AE6852B27658A6421CD0C8
:100960000621595691421CD012215956914222D04B
:100970001E215956914220D02A21595603249142D2
:1009800010D0134B19781A708171BFF35F8F00225A
:100990000B4B1A608CF3108870BDAB680D4C5C502B
:1009A000EFE700246100091989005B18FF219971A4
:1009B00009499980E5E70124F4E70224F2E7C046FB
:1009C000240100D09C010020AAAA000000ED00E054
:1009D0009A250020CD01001001BDFFFF054B064AFE
:1009E0001360064A136053609360D36013615361D0
:1009F000936170478080808000E400E004E400E0C0
:100A0000024B9C46614489000160704740000034FD
:100A100010B50400FFF754FE01002000FFF7F0FFBF
:100A2000FF232371BFF35F8F10BDC04610B50400D4
:100A3000FFF746FE01002000FFF7E2FFFF23A3803F
:100A4000BFF35F8F10BDC04683680B4810B5844666
:100A500061446244090112019A18591854684B689C
:100A600001209C4201D802D00020C0B210BD126803
:100A70000B689A42F9D8F7E7FFFFFF0F0A4B196896
:100A8000EFF3108072B60A68002AFCD0BFF35F8FC4
:100A90001B68BFF35F8F00221A6080F3108840BF8D
:100AA000002000217047C04638060020F8B55746A0
:100AB0004E464546DE46E0B599460CAB1C780DAB7C
:100AC0001B78060090469A460768002C11D1BC7B23
:100AD000002C42D065003B682D19033D59194B7815
:100AE000BB73002B00D1FB7300238B704B700B701A
:100AF00004E065003B682D19033D5919B2682A4B83
:100B000094464246E3181B0163441A604A465A6001
:100B10000A9A9A600B9ADA6000238B704B700B7004
:100B20007B7B9B46002B2BD022005946B8687B6804
:100B300098473A68002816D05B4658465B005B44ED
:100B40005519033BA870D118D35C002B00D06B70F3
:100B50005B460C707B73A34513D0F0BCBB46B2461A
:100B6000A946A046F8BD5B465B005B44033BD31837
:100B70009C705119525D002A00D05A705B460B7070
:100B80007C7342464B46307D00F010FB051E06D0BC
:100B90005346002B03D12100306800F031FD0E9B3D
:100BA000002BDAD01D70D8E7FFFFFF0FF0B5DE464F
:100BB00057464E4645460023E0B58BB00893664B3A
:100BC0008200D45800239B46099000F09FFA626887
:100BD00006000F00EFF3108572B61368002BFCD0EF
:100BE000BFF35F8F23689C465B7B9946002B68D0E0
:100BF000A2685A4B90464B441B01984443461A68DE
:100C00005B6810001900801BB941002963DD099859
:100C100000F0CCFA002300229846002306920793A6
:100C200000239A466368BFF35F8F5A461A6085F3C4
:100C300010885346002B08D10028C6D10BB0F0BC59
:100C4000BB46B246A946A046F0BD089B41461802E5
:100C50004B461843D047626806000F00EFF310853B
:100C600072B61368002BFCD0BFF35F8F002F4FDBF1
:100C700033003B4302D02369002B60D12368D97B2A
:100C8000002907D04A00521819688C464946624428
:100C9000033A51709A7B002A01D14A469A734A4618
:100CA000DA734B46E168013BCA5C0132CA545B46C9
:100CB00023616368BFF35F8F5A461A6085F310881B
:100CC00083E700230022984600230692079300231F
:100CD00000209A46A6E7002901D1002897D10021DB
:100CE000604600F00BFC43461A685B680692079367
:100CF00043469B689A464346DB689846E3684B4404
:100D0000013B1B7808931B0203432361002089E702
:100D10002369002BB2D0069A079B921BBB41002B84
:100D200015DB594604910121039149460291414640
:100D30000191514620000091FFF7B8FEB7E700F09F
:100D4000E5F932003B0012184B41002BE9DA012291
:100D5000034B5242E5E7C04624060020FFFFFF0F89
:100D6000FFFFFF7F10B5144C6368002B04D00A21ED
:100D70001248FFF745FE10BD2300114A10212068DC
:100D800000F0D6FA032000F0B5F9032000F07EFA57
:100D900003200C4900F0C4F9FFF792FC0A4B9C4673
:100DA00003232375D0231B061B6860446375074B20
:100DB00080006060DC60DAE7E40100203806002093
:100DC000490A0010AD0B001040000034240600203A
:100DD000F0B557464E464546DE46E0B585B0019330
:100DE00010AB1B780600039300239A4698460092A6
:100DF0007268EFF3108972B61368002BFCD0BFF352
:100E00005F8F3568AC7B002C49D067002B683F1999
:100E1000033FDB195A78AA73002A00D1EA73B1683C
:100E2000484A8C4600980199A21812016244106049
:100E300051600E9991600F99D16042469A705A7034
:100E40001A706B7B9B46002B45D022001900A868C6
:100E50006B6898472A68002830D05B4658465B008C
:100E60005B44D719033BB870D118D35C002B00D07A
:100E70007B705B460C706B735C452DD0F3681B195F
:100E8000013B18787368BFF35F8F42461A6089F39D
:100E900010885346002B2CD10002204307E07368D2
:100EA000BFF35F8F1C6089F310880120404205B0BA
:100EB000F0BCBB46B246A946A046F0BD5B465B000F
:100EC0005B44033BD3189C70D119D25D002A00D03B
:100ED0005A705B460B706C73307D009A019B00F07A
:100EE00065F982460028C9D02100306800F088FBEF
:100EF000C4E7039B002B23D00E9B00200F9998473B
:100F0000030004000D000B431AD000290ADA009AEE
:100F1000019B121BAB4100920193002B0ADB039B48
:100F20009A4665E700F0F2F824184D4100940195C7
:100F3000002DF4DA0123044C5B4200930194EEE7A8
:100F40000020B4E7FFFFFF0FFFFFFF7F70B542688F
:100F50000400EFF3108572B61368002BFCD0BFF3CA
:100F60005F8F2068CEB2437BB3420AD0FF230B4091
:100F70005A00D318026894466344033B9B78002BC5
:100F800013D0E268FF2394460B406344013B0A0AF6
:100F90001978D2B291420ED000206368BFF35F8F00
:100FA00000221A6085F3108870BD22698A42F3D14D
:100FB00000202361F1E7310000F022FBEDE7C0469D
:100FC00070B5EFF3058305000C0084B0002B0AD048
:100FD000164A0020536A9C4203D8926A0130AA4202
:100FE0001FD304B070BD124E02930193114B020047
:100FF000009330000B00FFF7EBFE011EE8DD20BF81
:101000003000FFF7A3FF094B0020596A8C42E8D853
:101010009B6A0130AB42E4D2641A631E9C41E0B289
:10102000DFE7E41A631E9C41E0B2DAE700400540C6
:10103000E40100207D0A0010F0B5EFF30582D646EA
:101040004F4646461000C0B51038EFF3108872B610
:10105000214C2368002BFCD0BFF35F8F01231900C4
:1010600081401E4D1F006963AA461D4D29601D4D1C
:101070002E78AC463500C5402F402B4209D1BFF336
:101080005F8F276088F31088E0BCBA46B146A84657
:10109000F0BD5346144D5F6A83005D59AF420ED3D5
:1010A000124A8E439B5862461670BFF35F8F002230
:1010B000226088F31088002BE6D09847E4E70C4BB9
:1010C00092009C46624413681360BFF35F8F002355
:1010D000236088F31088D7E7280100D0004005403E
:1010E0003C7005409B250020400600209405002010
:1010F000D03F054010B50100024A0348FFF762FAED
:1011000010BDC0466C28001098250020034B596A7A
:101110000A00986A596A8A42FAD17047004005402D
:1011200070B504000D00EFF3108672B61A4A13680A
:10113000002BFCD0BFF35F8F002D1BD02000FFF7EA
:10114000E9FA164981420AD02000FFF7EBFA0121A3
:101150002000FFF7C1FA0123A340114A1360114B8D
:10116000A400E550BFF35F8F00220B4B1A6086F39B
:10117000108870BD0B4BA200D5500122A2400A4935
:1011800020000B7893430B700449FFF7F5FA002118
:101190002000FFF7A1FAE5E7280100D03910001080
:1011A00038600540940500209B250020F0B54F468F
:1011B000D6464646C0B507002F4C616A0D00A66AA8
:1011C000616AA942FAD18B4208D805D00120E0BC5F
:1011D000BA46B146A846F0BDB242F7D9EFF3108A3D
:1011E00072B6264801680029FCD0BFF35F8F012545
:1011F000BD402349204C8846097889462943C9B215
:101200008C46414660460870391D1E48890065635A
:101210000A51B9000B50216A0020294219D0616A95
:101220000800A66A616A8142FAD18B4219D801D1BD
:10123000B24216D8CC451DD00F4B1F201D625D63F6
:1012400001230740BB40104A1E38136043464A46FC
:101250001A70BFF35F8F0022084B1A608AF3108860
:10126000B5E70020BFF35F8F0022044B1A608AF3BA
:101270001088ACE70120ECE700400540280100D0D1
:101280009B2500204006002080E200E0EFF3108C58
:1012900072B60A490B68002BFCD0BFF35F8F0123A5
:1012A0008340074A0748136202789A430270BFF3EB
:1012B0005F8F00230B608CF310887047280100D0EB
:1012C000004005409B25002070B505001400160065
:1012D000002915D00C00002A12D080686B6898474E
:1012E000296800280ED073009B196200033B121975
:1012F000CB18033A9C7088188A5C002A15D10670B6
:10130000200070BD63001B197200033B9219CB18BB
:10131000033A9E7088188A5C002A02D10470340057
:10132000EEE75A7004703400EAE75A700670E7E797
:1013300030B583600023CCB2437301330473426041
:101340008373C4730D000068012C06D9421C01335D
:10135000DBB2137003329C42F9D1FF2129404B00CC
:101360005918002340180338437030BDF8B5CE46F5
:10137000474606000C0080B5002907D04D000368E1
:101380006D18033D5A195778002F04D12000C0BCB6
:10139000B946B046F8BD7900C919033988464344B7
:1013A0005978894600215970517073683A002100BC
:1013B000806898473368002814D042469A18947081
:1013C00059195B5D002B00D053700F702700494600
:1013D0003000FFF7CBFF390002003000FFF774FF49
:1013E0000400D3E7424641465D19AF709A185B5C32
:1013F000002B00D06B701470E9E7C046F0B557467B
:101400004546DE464E46E0B50D006B0001685B19AF
:10141000DF1E0400C85D83B00192CA19002850D0B5
:1014200043001B18033BCB185E78B446002E1AD13C
:10143000019E002E42D0E67B002E04D073009B1943
:10144000CB18033B5D70A37B002B00D1A573E57324
:1014500000282FD10023537003B0F0BCBB46B24626
:10146000A946A046F0BD72006244033A89184A7842
:10147000904600224A7091465A70010032002000C6
:10148000FFF722FF43468246002B07D05B0021680E
:101490004344033BCB185A78002A16D142465146A2
:1014A0002000FFF711FF2168019BCA19002BC2D150
:1014B0000028CFD043001B18033BCB1800219970A4
:1014C000C8E7019B002BB6D1C4E750008018033851
:1014D00009184878834648464870587041462000AD
:1014E000FFF7F2FE594680462000FFF73FFF4146D6
:1014F00002002000FFF7E8FE8046CFE7F0B5574630
:101500004546DE464E46E0B583B00191457B04007A
:101510006B0000685B19DF1EC15DC219002952D043
:101520004B005B18033BC3185E78B446002E1CD1F9
:10153000019E002E44D0E67B002E04D073009B1940
:10154000C318033B5D70A37B002B00D1A573E5732B
:10155000002931D1002328005370617303B0F0BC1F
:10156000BB46B246A946A046F0BD72006244033AAB
:101570008018427890460022427091465A702000AE
:101580003200FFF7A1FE43468246002B07D05B00E6
:1015900021684344033BCB185A78002A17D14246AE
:1015A00051462000FFF790FE019B01002068C21900
:1015B000002BC0D10029CDD04B005B18033BC318D2
:1015C00000209870C6E7019B002BB4D1C2E7500001
:1015D0008018033809184878834648464870587080
:1015E00041462000FFF770FE594680462000FFF775
:1015F000BDFE414602002000FFF766FE8046CEE7B2
:1016000070B5040000292CD0437B8B422ED0056896
:1016100048004018033828188278002A21D0530047
:101620009B18033BEA5CEE188A4202D11BE0002AB9
:1016300008D053009B18033BEB185A788A42F6D126
:1016400042785A7000230122837043702000FFF714
:10165000D5FE617B02002000FFF736FE607301209B
:1016600000E0002070BD43783370EBE701221900E1
:10167000FFF7C4FE60730120F4E7C046F8B504002C
:1016800006200D0000F0C8F9002844D02A4B2B4951
:10169000E21853425A418023DB039C469205284BB3
:1016A00062441A60274B1A6010008B689843FBD184
:1016B000214B8021E3185A425341234A5B004900E1
:1016C0009952062000F0A8F92900C00000F014FB90
:1016D000C30921D140270121260080256162A36230
:1016E00000232C36AD0135432B60062000F094F921
:1016F0003900800000F000FB6023E26A53406E2254
:101700001A4080235B0133431A60104B236310237C
:101710002B600D3BA364F8BD0D4A934203D900230F
:101720000C4F0D49D8E77F221040013040089F013F
:1017300019003F180300CFE70080FCBF00C0004045
:1017400000E0004000F00040902500200103000070
:10175000FEFF0000C0FF3F00FFFF000030B50C207F
:1017600083B000F0B7F9FEF70FFF00280ED0944BBE
:10177000944A1A605A609A60DA601A615A619A61F2
:10178000DA611A62904A5A6203B030BD8F4CA0678A
:1017900000F0A8F901228E4B1A60636C012BFCD17A
:1017A00003228C4B1A60894A936B012BFCD10133C5
:1017B0000121894A89480093043300F033F9052355
:1017C000874A00930121874800F02CF9864B5A681C
:1017D000FF2A02D8802252005A608022784C7D4B2A
:1017E00021691201804D1A60002905D0606900F05E
:1017F00083FA01300138FDD1E0217B4B02201A68C9
:101800001140802252012A43116019684840032187
:101810000140116004219A681142FCD0802280218D
:1018200092012A4309011160802252005A606F4BD5
:1018300023616F4B5968FF2900D85A600321644A1D
:101840006B4B116002399A681142FCD0E0201A6893
:101850001040802252011A4310601868484003214A
:1018600001400220116062498A681042FCD0802247
:1018700092011343802212011A6080225D4B5200B4
:101880004A6063615C4B5968FF2900D85A60802226
:101890005A4BE1691201584D1A60002905D0606960
:1018A00000F02AFA01300138FDD1E02252490B68DC
:1018B0001A4080235B012B431A60802380229B0106
:1018C0002B4312011A6080223E4B52004A60E361B2
:1018D0004B4B5968FF2900D85A608022494B216A36
:1018E0001201474D1A60002905D0606900F004FA22
:1018F00001300138FDD1E02241490B681A408023B4
:101900005B012B431A60802380229B012B43120131
:101910001A60802380225B004B602A4BD202236234
:10192000394B5968914200D25A608022374B616A24
:101930001201354D1A60002905D0606900F0DCF90C
:1019400001300138FDD1E0222F490B681A40802375
:101950005B012B431A60802380229B012B431201E1
:101960001A608023DB024B60174B6362284B5A6876
:10197000FF2A02D8802252005A608022254BA1699A
:101980001201234D1A60002905D0606900F0B4F9F6
:1019900001300138FDD1E0221D490B681A40802337
:1019A0005B012B431A60802380229B012B43120191
:1019B0001A6080235B004B600E4BA361E4E6C046D7
:1019C000AC050020006CDC021BB70000008000406A
:1019D0003CB0004030B00040002F68590080024009
:1019E000008C864700C0024030800040001BB700DA
:1019F0003C800040405973075480004054B0004080
:101A00006080004060B000406C8000406CB00040DE
:101A10004880004048B00040014B8000C0587047EB
:101A2000AC050020F0B5C646040000B50C20904679
:101A30001F000E0000F060F94101091A8D01691ABA
:101A4000C90009188901404600F056F9069B3F0479
:101A50001A0323681743002B22DB1A4B1A4DE21896
:101A600053425A4180235B019C461203174B624448
:101A70001A60174B1A601100AB689943FBD1C02262
:101A8000231D92011A4321232660A060136023685E
:101A9000002BFCDA0823E760136080BCB846F0BD79
:101AA0003F2322681340B342D7D1A3681B051B0D07
:101AB0008342D2D1EE22E368D2021340BB42CCD1A2
:101AC000EBE7C0460040FDBF00C0004000E0004022
:101AD00000F000408023024A9B000343D36270471A
:101AE00000800540AA23064A1B0113602F230549E5
:101AF000D360054B19605368002BFCDA7047C04671
:101B00000040024000B0FA00006002402C4B2D4A19
:101B100070B51A602C4A2D4B2D491A6014008B6841
:101B20009C43FBD12B4D2C4EB54208D2013E761B77
:101B3000B60808CD984723000134B342F9D1FFF726
:101B40000DFE264A214B1A60214A9368DB43DB01D4
:101B5000DD09002BF9D14022214B224C224E9A67FD
:101B60005A671A67DA66B44208D223682000002B4D
:101B700020D00834FEF75AFFB442F6D31B4E1C4C5B
:101B8000C022A168300000F01DFAA660FEF78AFDB1
:101B9000FEF724FFFFF7E6F8164C174EB44208D2C2
:101BA000013E361BB60808CC98472B0001359E42F3
:101BB000F9D170BD0834FEF72BFFB442D5D3DDE771
:101BC00000E00040BFCDFBFEFE7F3C0000F0004087
:101BD00000C000405802002068020020FFFFFF0103
:101BE00000F00140480200205802002000000020C0
:101BF00000ED00E0680200206C02002000BEFDE75E
:101C000010B5FFF7FBFFC0460FB400B5084883B01E
:101C100000F00AFB049B002B07D005A918000191D6
:101C200000F018F8034800F0FFFA0120FFF7E6FF84
:101C300090280010A028001010B50148FFF7E4FF1D
:101C4000A428001010B5002800D110BD00F0A0FAA3
:101C5000FBE7C04610B5094A0300146884B0002CA5
:101C600008D0012200910648524203A9A047012052
:101C700004B010BD00F0D8FA0020F9E71C060020DF
:101C8000451C001001480421014B18471002002098
:101C9000B51C0010142310B50100188804331B88EC
:101CA000984710BD162310B50100188802331B8811
:101CB000984710BDF8B54746CE4680B50F1E19D0DF
:101CC00014239946043304000025012698464B4608
:101CD0001888434621681B88984701C4431E9841D1
:101CE000013540420640AF42F1D13000C0BCB94698
:101CF000B046F8BD0126F8E7114A936F9B0813D24E
:101D000010665166002905D0FFE7FFE7FFE7516F36
:101D1000106F704704B5002801D00020C04300F0C8
:101D20008BFD002104BDC046F0B5146E556E576F93
:101D3000166FFFF7E5FF1466556657671667F0BD27
:101D4000000000D0132370B51D78012D15D010DDD3
:101D50001C48FFF7A7FF1C4C01008022200000F068
:101D600031F9022D06D01948FFF794FF184B18607F
:101D700070BD154C174BA364F5E7164B124C23604E
:101D80006360A360E36023616361A361E361236235
:101D90006362A362E36223636363A363E363236415
:101DA0006364A364E36423656365A365E3652366F5
:101DB0006366A366E36623676367A367E367A36459
:101DC000D1E7C04653440000700300204C330000AC
:101DD00034060020D91D001007B5604601880A0AA4
:101DE0000230DF2AFAD1C9B2820804D302884088BF
:101DF0000004104300E00068014A5050039007BD02
:101E0000700300204840414048400E4B5B68184733
:101E10000C4B1B6818470C4A936F9B0802D2094B66
:101E2000DB681847F0B5146E556E576F166FFFF7E5
:101E3000F6FF054A1466556657671667F0BD014BF5
:101E40009B68184770040020000000D0491A002841
:101E500008D1084670470000C10FC90700D54042AD
:101E6000002817D0F44603B40B4B1B68984706BCF8
:101E700081409E384042803107D20B0607D049008E
:101E8000490AC0051043084360470130F8E7490A92
:101E90008902F5E7704700003406002041000A0E71
:101EA00080231B067E2A0BDD9E3A0BDAC117400207
:101EB000400818435242D04049000131484370471E
:101EC00000207047C00FC01801387047C0420DD3C2
:101ED00000B540004008002100F012F8002801D4AD
:101EE000404200BD8020000600BD0000034BDB69BE
:101EF000FC4618471CDF9D1F0010000070040020E6
:101F0000014B5B6A1847000070040020132310B5D2
:101F100012481C78FFF7C6FE0100012C0AD003DD31
:101F200080220F4800F04EF80E48FFF7B3FE0E4B2C
:101F3000186010BD0A4C5422200000F043F80B4BEF
:101F40006365A365E36523666366A366E36623674B
:101F50006367A367E3672362E361E5E75346000035
:101F6000700400204C33000034060020711F001064
:101F700007B5604601880A0A0230DF2AFAD1C9B2E1
:101F8000820804D3028840880004104300E00068FF
:101F9000014A5050039007BD700400200021C21573
:101FA0008032803201D0024A104700207047000082
:101FB000CD2A000001480421014B184720020020CF
:101FC000B51C0010014B5B68184700002002002080
:101FD000030010B5080011001B68984710BDC046EB
:101FE000F0B546464F46D646C0B5437D80460E0006
:101FF0001700002B46D0002A3FDD4B1E9946244B8C
:102000000125002400209A460DE04B461B5D0D3B48
:102010005A425341325DDBB20A2A0BD02B00013405
:1020200001359F421ADD002CEFD14346325D1B7D06
:102030000A2AF3D1002BF1D1A04204DA4346211A37
:102040001B6830189847434650461B680221984742
:10205000013428002B0001359F42E4DC874204DD77
:102060004346391A1B6830189847F619013E3378F1
:102070000D3B5A42534142461375E0BCBA46B14645
:10208000A846F0BD0368110030009847F5E7C04648
:1020900018290010F0B5DE4657464E464546E0B5D5
:1020A00085B017001C0006000D00FFF72FF8002375
:1020B000304A12184B41002B58DB2F4908008A4642
:1020C00000F0C2FB01906B1C03D1300000F07AFBE2
:1020D0000500002C25D1294B9846294B1C68002C63
:1020E00015D0002F20D1274F02E02469002C0ED0FC
:1020F0002368002BF9D03B68002B01D0A342F4D118
:1021000020002A003100C0472469002CF0D1019B37
:10211000002B27D105B0F0BCBB46B246A946A0466D
:10212000F0BD194B9846D8E7164B994602ABDF1D18
:102130000A239B4602E02469002CE8D02368002B88
:10214000F9D04B461B68002B01D0A342F3D12A00E3
:1021500031002000C0475B460122390020003B705F
:10216000C047E8E7504600F05FFBD3E70122074B8A
:102170005242A2E740420F0050020020E11F00102F
:102180001406002018060020D11F0010FFFFFF7F5B
:10219000F0B5CE46474680B583B06B460600DD1DE0
:1021A0002870FEF7B3FF00231A4A12184B41002B88
:1021B0002BDB19490800884600F046FB174B814687
:1021C0001C68002C14D0164F02E02469002C0FD09C
:1021D0002368002BF9D03B68002B01D0A342F4D137
:1021E000200001222900FFF7FBFE2469002CEFD11B
:1021F0004B46002B05D1300003B0C0BCB946B046F9
:10220000F0BD404600F010FBF5E70122054B5242BD
:10221000CFE7C04640420F005002002014060020C5
:1022200018060020FFFFFF7F70B5040000F0CAFA17
:1022300000230100050001222000FFF72BFF084BBF
:102240001C68002C06D06368002B05D098472469D1
:10225000002CF8D1280070BD2469002CF3D1F9E7D7
:10226000140600200A4A1368002B05D10CE01A005E
:102270001B691032002B07D09842F8D1002902D1F7
:1022800003691360016170470029FCD01060FAE710
:102290001406002010B500F0C5F8012010BDC0469E
:1022A000F0B50D1E15DD0E4B0D271A680D4B4519A7
:1022B000D31859424B410C495B005E5E20210478E3
:1022C000A64207D093691942FCD101301460A8429C
:1022D000F5D1F0BD93691942FCD11760F2E7C04611
:1022E000942500200080FCBF9025002030B504001C
:1022F0000D1E26DD002010211B4B013C1A6893693E
:10230000194219D1013093691942FCD11368235441
:102310008542F4D1154B1B68002B0CD050239363DE
:10232000516B183B34320B401100802252010A439A
:102330001360002815D030BD0C4B1B68002BEDD16D
:10234000F7E70A4B1B68002B0BD050223821064BB5
:102350001B689A635A6B3433114080225201134335
:10236000196003204042E6E794250020A4050020E0
:10237000064B10B51B68002B06D00021044A1268DA
:102380009163044A1068984710BDC046A405002018
:1023900094250020A80500201D4BF0B51A68C646FC
:1023A00098461C4B0E00D31859424B411A4F143318
:1023B0001C00050000B53B68002807D0002B11D099
:1023C000164B3D601E6080BCB846F0BD002BF7D0B8
:1023D000906300212000FEF77FF920001049FEF7EE
:1023E000CBF9EDE720000E49FEF79CF90121200012
:1023F000FEF772F94346502238211B689A635A6BE4
:10240000343311408022520113431960D8E7C0468B
:10241000942500200080FCBFA4050020A805002012
:102420007123001010B50C4B0C4C1B780C4B022187
:102430001B780C4B00202360FEF762F8022101207C
:10244000FEF75EF8E12120684902FFF717F9012144
:102450000548FFF707FF10BDB029001094250020A4
:10246000B429001000400340300200200B4B10B58F
:102470009C46604443425841094A840082B000921D
:1024800008482200E31CFEF7BFF8844202DC001B70
:1024900002B010BD01204042FAE7C0460000D0AFB4
:1024A0005C29001099250020F0B5D6464F464646D7
:1024B0008846C0B505240600FEF76EF843461F792E
:1024C0001C57284B8146F01843425841264B9A46E8
:1024D00083009C4653466246985801222023BA4006
:1024E000DB1B013A002C32DB9C422DDCA2401500A4
:1024F000104229D1002F1AD043465A781978120277
:10250000114342469B78D2781B040B4312061A43B0
:102510009046002241465300C95A4B0B00D109197D
:10252000131912339B00013299519742F2D8534646
:10253000624605439D504846FEF73AF82000E0BC4D
:10254000BA46B146A846F0BD0848FFF75DFB002B30
:1025500002DAF9E7013BF7D315009D401C00054264
:10256000F8D1C7E70000D0AF8C050020802900100B
:10257000F0B557464E464546DE468946E0B583B03F
:102580000CA90D784946490088464944C9004618B7
:1025900037003400DC3701903868CC34834620683B
:1025A000C02482460198CC318446A4016144214371
:1025B0008024A4020C60691E8D411F216D420D40D4
:1025C00016498C466544052B0ED9A02149058C4639
:1025D0001F21D8366046540104430532053B3C6058
:1025E0000A403560052BF5D8414652019B0613433E
:1025F0004944019AC90050180200DC3213600300FC
:10260000D8331D605B4613605346CC30036003B083
:10261000F0BCBB46B246A946A046F0BD80E0000033
:10262000F0B501258D400468AC434D0004606C1882
:10263000E40004192600C836002B28D01F68DC34BB
:1026400037605F6877609F68DB68B76023606D18EC
:10265000EB001D008024D035451964012C438025F2
:102660002D062560256001250F4C2E008C408460CE
:102670000C1DA640802408318D401F21A401044375
:10268000C0180A40D830266025600260F0BD80275F
:102690007F023760F8277F027760C027DC343F0372
:1026A000B7602360D3E7C0460101010103BDC04606
:1026B00010B50400FEF792F9A04710BDF0B5040074
:1026C00087B00F200E001700FEF718F80021050054
:1026D0000F20FEF701F8002300220092019301234E
:1026E0000293D023049605940026002401210220A1
:1026F00003971B06002C14D01A6D1042FCD05C65A9
:1027000040BF1A6D114203D120BF1A6D1142FBD098
:102710009A6DA2420AD000266C46B200A458E9E79E
:102720009A6D1A6D1142FBD140BFE5E70136052EC7
:10273000F2D929000F20FDF7CFFF07B0F0BDC0464A
:102740000B4B0C4A10B5934201D201235B42190096
:10275000094A985004329B50084A094B0948CA500C
:10276000094B9A68044B9C466144FFF7A7FF10BDD4
:102770000008042000000420F4070000B126001027
:10278000FC070000AD26001000ED00E00123012150
:10279000084A1360084A1360084A0800936898437F
:1027A000FBD1074A11608021490013680B42FCD01D
:1027B0007047C04600E0004000F0004000C000400C
:1027C00000C0044010B583070AD00300032102E0D3
:1027D00001330B4205D01A78002AF9D1181A10BD1E
:1027E000030019680C4A0D4C8A188A4322420FD103
:1027F0005968094A04338A188A43224208D1596821
:10280000054A04338A188A432242F1D000E001339A
:102810001A78002AFBD1E1E7FFFEFEFE808080806F
:10282000F8B5C0460000000001B40248844601BC6F
:10283000604700BF5D01002001B40248844601BC2E
:10284000604700BF8501002001B40248844601BCF6
:08285000604700BFC100002039
:102858006028001006FF00000860A0805FE042A02A
:1028680083000000486172647761726520616C6161
:10287800726D20256420616C726561647920636CD7
:1028880061696D65640000000A2A2A2A2050414EB9
:102898004943202A2A2A0A000A0000004861726473
:1028A800206173736572740052656C6561736500AD
:1028B800626F6F74325F77323571303830000000E4
:1028C800312E352E300000007069636F0000000063
:1028D8005069636F56434F5F4C464F5F5232520008
:1028E8004F637420323320323032330006005250A6
:1028F800BBFF3CB6D028001006005250E182887F0A
:10290800B828001006005250D3F07542B0280010C5
:102918000D0A00005541525420737464696E00001A
:1029280055415254207374646F7574005541525464
:1029380020737464696E202F207374646F7574003B
:102948000600525053B4F4A1342900100800525024
:10295800920000004E6F2050494F207374617465D7
:10296800206D616368696E657320617265206176A8
:1029780061696C61626C65004E6F2070726F67727E
:0C298800616D2073706163650000000049
:10299400AC020010A002001094020010F4280010F1
:1029A40088020010002900100C290010482900108A
:0429B4005429001092
:1029B800F0B5C646150000B504001E000268EFF326
:1029C800108172B61368002BFCD0BFF35F8F04230D
:1029D800E356002B2DDB2268BFF35F8F00201060C9
:1029E80081F31088D0221206127852B290469A4289
:1029F80003D1002080BCB846F0BD00270BE0236857
:102A0800BFF35F8F1F6081F310882800310000F04A
:102A180033F80028EDD12268EFF3108172B61368FD
:102A2800002BFCD0BFF35F8F23797F2BE7D9434678
:102A380002E0D0231B061B6823712368BFF35F8F56
:102A480000221A6081F310880120D3E70268EFF3AF
:102A5800108172B61368002BFCD0BFF35F8FFF2381
:102A680003710368BFF35F8F00221A6081F3108837
:102A780040BF70477047C04601B40248844601BC55
:102A8800604700BFC10F00101000000000000000E8
:102A9800000001000000000000000000000002002B
:102AA800000000000000000000000300000000001B
:102AB800000000000000FF000000000001B54868A9
:102AC80001318E460047704609380149884701BDE3
:102AD80029090010FC0100200000000070020020FD
:102AE800D40500200000000000000000E4050020DC
:102AF80000000000000000001000000000000000BE
:102B0800503300004C3300005433000052330000AF
:102B18004D5300004D43000053340000433400007F
:102B2800A122001000000000ED22001099230010DF
:102B3800000000000001000000000000000000008C
:102B48000000000000000000B51F0010851C0010E8
:0C2B5800451D00100D1F0010E5020010CC
:04000005100001E9FD
:00000001FF
